:0200000470008A
:10000000464346420004015600000000010303007D
:1000100000000000000000000000000000000000E0
:1000200000000000000000000000000000000000D0
:1000300000000000000000000000000000000000C0
:1000400000000000000406000000000000000000A6
:100050000000800000000000000000000000000020
:100060000000000000000000000000000000000090
:100070000000000000000000000000000000000080
:10008000EB04180A063204260000000000000000FD
:100090000000000000000000000000000000000060
:1000A0000000000000000000000000000000000050
:1000B0000000000000000000000000000000000040
:1000C0000000000000000000000000000000000030
:1000D0000000000000000000000000000000000020
:1000E0000000000000000000000000000000000010
:1000F0000000000000000000000000000000000000
:1001000000000000000000000000000000000000EF
:1001100000000000000000000000000000000000DF
:1001200000000000000000000000000000000000CF
:1001300000000000000000000000000000000000BF
:1001400000000000000000000000000000000000AF
:10015000000000000000000000000000000000009F
:10016000000000000000000000000000000000008F
:10017000000000000000000000000000000000007F
:10018000000000000000000000000000000000006F
:10019000000000000000000000000000000000005F
:1001A000000000000000000000000000000000004F
:1001B000000000000000000000000000000000003F
:1001C000000100000010000000000000000000001E
:1001D000000004000000000000000000000000001B
:1001E000000000000000000000000000000000000F
:1001F00000000000000000000000000000000000FF
:1002000000000000000000000000000000000000EE
:1002100000000000000000000000000000000000DE
:10100000D10020410020007000000000E82900709D
:1010100020100070001000700000000000000000B0
:10102000000000700000400000000000FFFFFFFF14
:1010300000000000000000000000000000000000B0
:1010400000000000000000000000000000000000A0
:101050000000000000000000000000000000000090
:101060000000000000000000000000000000000080
:1020000000000220A1240070B9240070BB240070DD
:10201000BD240070BF240070C124007000000000C7
:10202000000000000000000000000000C324007059
:10203000C524007000000000C7240070C92400708F
:10204000CB240070CF240070D3240070D7240070FC
:10205000DB240070DF240070E3240070E7240070AC
:10206000EB240070EF240070F3240070F72400705C
:10207000FB240070FF24007003250070072500700A
:102080000B2500709B2500709B2500709B25007020
:102090000F25007013250070172500701B25007098
:1020A0001F25007023250070272500702B25007048
:1020B0002F25007033250070372500703B250070F8
:1020C0003F25007043250070472500704B250070A8
:1020D0004F250070532500709B2500709B250070D4
:1020E0009B2500709B2500709B2500709B25007030
:1020F0009B2500709B2500709B2500709B25007020
:102100009B2500709B2500709B2500709B2500700F
:102110009B2500709B2500709B2500709B250070FF
:10212000572500705B2500705F25007063250070E7
:10213000672500709B2500709B2500709B25007013
:102140009B2500709B2500709B2500709B250070CF
:102150009B2500709B2500709B2500709B250070BF
:102160009B2500709B2500709B2500709B250070AF
:102170009B2500709B2500709B2500709B2500709F
:102180009B2500709B2500709B2500709B2500708F
:102190009B2500709B2500709B2500709B2500707F
:1021A0009B2500709B2500706B2500706F250070CB
:1021B0009B2500709B2500709B2500709B2500705F
:1021C0009B2500709B2500709B2500709B2500704F
:1021D0009B2500709B2500709B2500709B2500703F
:1021E0009B2500709B2500709B2500707325007057
:1021F000772500709B2500707B2500707F2500707F
:102200009B2500709B25007083250070872500703A
:102210009B2500709B2500709B2500709B250070FE
:102220009B2500709B2500709B2500709B250070EE
:102230009B2500709B2500709B2500709B250070DE
:102240009B2500709B2500709B2500709B250070CE
:102250009B2500709B2500709B2500709B250070BE
:102260009B2500709B2500709B2500709B250070AE
:102270009B2500709B2500709B2500709B2500709E
:102280009B2500709B2500709B2500709B2500708E
:102290009B2500709B2500709B2500709B2500707E
:1022A0008B2500708F250070932500709B25007092
:1022B000972500709B2500709B2500709B25007062
:1022C0009B2500709B2500709B2500709B2500704E
:1022D0009B2500709B2500709B2500709B2500703E
:1022E0009B2500709B2500709B2500709B2500702E
:1022F0009B2500709B2500709B2500709B2500701E
:102300009B2500709B2500709B2500709B2500700D
:102310009B2500709B2500709B2500709B250070FD
:102320009B2500709B2500709B2500709B250070ED
:102330009B2500709B2500709B2500709B250070DD
:102340009B2500709B2500709B2500709B250070CD
:102350009B2500709B2500709B2500709B250070BD
:102360009B2500709B2500709B2500709B250070AD
:102370009B2500709B2500709B2500709B2500709D
:102380009B2500709B2500709B2500709B2500708D
:102390009B2500709B2500709B2500709B2500707D
:1023A0009B2500709B2500709B2500709B2500706D
:1023B0009B2500709B2500709B2500709B2500705D
:1023C0009B2500709B2500709B2500709B2500704D
:1023D0009B2500709B2500709B2500709B2500703D
:1023E0009B2500709B2500709B2500709B2500702D
:1023F0009B2500709B2500709B250070FFFFFFFF51
:1024000000F002F800F03CF80AA090E8000C8244CA
:102410008344AAF10107DA4501D100F031F8AFF2A7
:10242000090EBAE80F0013F0010F18BFFB1A43F0B2
:1024300001031847B8050000D8050000103A24BF72
:1024400078C878C1FAD8520724BF30C830C144BF19
:1024500004680C607047000000230024002500265B
:10246000103A28BF78C1FBD8520728BF30C148BFF7
:102470000B6070471FB500F095FA1FBD10B510BD79
:10248000DFF80CD0FFF7F6FF00F06CFA00F0FBF875
:102490000000022003B4FFF7F1FF03BC00F0FAF8DC
:1024A00072B63F483F4901600A6882F308883E4897
:1024B000804762B63D480047FEE7FEE7FEE7FEE7DD
:1024C000FEE7FEE7FEE7FEE7FEE73948004739484A
:1024D00000473948004739480047394800473948DC
:1024E00000473948004739480047394800473948CC
:1024F00000473948004739480047394800473948BC
:1025000000473948004739480047394800473948AB
:10251000004739480047394800473948004739489B
:10252000004739480047394800473948004739488B
:10253000004739480047394800473948004739487B
:10254000004739480047394800473948004739486B
:10255000004739480047394800473948004739485B
:10256000004739480047394800473948004739484B
:10257000004739480047394800473948004739483B
:10258000004739480047394800473948004739482B
:10259000004739480047394800473948004700009C
:1025A00008ED00E000200070592800700124007040
:1025B0009B2500709B2500709B2500709B2500705B
:1025C0009B2500709B2500709B2500709B2500704B
:1025D0009B2500709B2500709B2500709B2500703B
:1025E0009B2500709B2500709B2500709B2500702B
:1025F0009B25007099270070B1270070C9270070D3
:10260000E1270070F9270070112800702928007058
:10261000412800709B2500709B2500709B25007051
:102620009B2500709B2500709B2500709B250070EA
:102630009B2500709B2500709B2500709B250070DA
:102640009B2500709B2500709B2500709B250070CA
:102650009B2500709B2500709B2500709B250070BA
:102660009B2500709B2500709B2500709B250070AA
:102670009B2500709B2500709B2500709B2500709A
:102680009B25007070470446AFF300802046FFF79B
:1026900001FF000001491820ABBEFEE72600020042
:1026A000F0B50E46194915460446002051F8203071
:1026B000A34202D0401C0A28F8D31449144F2831F1
:1026C00031F91000032100F01F02030A07EB830019
:1026D000036891408B430B43036060690127B74057
:1026E000B8436061287870B16A783146204600F0BE
:1026F00048F8606838436060AA7820463146BDE8F3
:10270000F04000F007B86068B843F4E7B4290070FF
:1027100068C00F40F0B5C3690125102905FA01F61C
:1027200023EA0603C36102D200F10C0302E0103970
:1027300000F110030324062A18D2DFE802F0170381
:10274000080F181E186849008C40A04313E01A684F
:10275000480084408540A2432A4306E01A684800A6
:10276000022184408140A2430A431A60F0BD1868E8
:1027700049008C4020431860F0BDC1693143C161FC
:10278000F0BD012303FA01F3016812B1194301609E
:1027900070479943FBE70000044A02481268416809
:1027A00001481047040000200040184000000020AD
:1027B000044A02481268816801481047040000205A
:1027C0000080184000000020044A02481268C168D6
:1027D000014810470400002000C0184000000020FD
:1027E000044A0248126801690148104704000020A9
:1027F0000000194000000020044A024812684169A4
:10280000014810470400002000401940000000204B
:10281000044A0248126881690148104704000020F8
:102820000080194000000020044A02481268C16973
:10283000014810470400002000C01940000000209B
:10284000044A02481268016A014810470400002047
:1028500000001A40000000203B4A2DE9F0413B49AE
:1028600013683B4843F4700313600A8922F00102A5
:102870000A81028922F0010202810A88520703D5E7
:102880000A8822F004020A800188490703D50188DA
:1028900021F0040101802F484FF6FF722E4941605C
:1028A000826002684FF0E02122F0800242F02002B4
:1028B00002600869C00703D0086920F001000861C0
:1028C000214A743A00201168890311D4BFF34F8F55
:1028D000BFF36F8F21490860BFF34F8FBFF36F8F36
:1028E000116841F400311160BFF34F8FBFF36F8F58
:1028F0001168C90323D41449091F0860BFF34F8F1F
:10290000081F43F6FF740068144D1035C0F34E31B4
:10291000C0F3C90304EA4116184600BF46EA8077AF
:102920002F60401EFAD2491EF4D2BFF34F8F1068B9
:1029300040F480301060BFF34F8FBFF36F8F00F013
:102940000FF8BDE8F081000088ED00E000800B404A
:1029500000000D4000C00B4020C528D950EF00E01A
:10296000704700000B480C4908B50068009005202E
:10297000086041F2B000094908600921084C6A4624
:102980002046FFF78DFE002220460921FFF7F9FEC1
:10299000F9E70000B0290070E0801F40D0821F409E
:1029A00000801B404FF04070E1EE100A70470000BD
:1029B000010000000000000000801B4000C01B4020
:1029C00000001C4000401C4000000C400000004281
:1029D000004000420080004200C00042FFFF1A0198
:1029E0001E001A020C031E01000000000C2A0070D9
:1029F00000000020040000003C240070102A007039
:102A00000400002024000000582400700000000092
:040000057000240162
:00000001FF
