:020000040000FA
:1000000000000220A1040000B9040000BB040000AD
:10001000BD040000BF040000C10400000000000097
:10002000000000000000000000000000C304000009
:10003000C504000000000000C7040000ED16000029
:10004000CB040000CF040000D3040000D70400005C
:10005000DB040000DF040000E3040000E70400000C
:10006000EB040000EF040000F3040000F7040000BC
:10007000FB040000FF04000003050000070500006A
:100080000B0500009B0500009B0500009B05000080
:100090000F05000013050000170500001B050000F8
:1000A0001F05000023050000270500002B050000A8
:1000B0002F05000033050000370500003B05000058
:1000C0003F05000043050000470500004B05000008
:1000D0004F050000530500009B0500009B05000034
:1000E0009B0500009B0500009B0500009B05000090
:1000F0009B0500009B0500009B0500009B05000080
:100100009B0500009B0500009B0500009B0500006F
:100110009B0500009B0500009B0500009B0500005F
:10012000570500005B0500005F0500006305000047
:10013000670500009B0500009B0500009B05000073
:100140009B0500009B0500009B0500009B0500002F
:100150009B0500009B0500009B0500009B0500001F
:100160009B0500009B0500009B0500009B0500000F
:100170009B0500009B0500009B0500009B050000FF
:100180009B0500009B0500009B0500009B050000EF
:100190009B0500009B0500009B0500009B050000DF
:1001A0009B0500009B0500006B0500006F0500002B
:1001B0009B0500009B0500009B0500009B050000BF
:1001C0009B0500009B0500009B0500009B050000AF
:1001D0009B0500009B0500009B0500009B0500009F
:1001E0009B0500009B0500009B05000073050000B7
:1001F000770500009B0500007B0500007F050000DF
:100200009B0500009B05000083050000870500009A
:100210009B0500009B0500009B0500009B0500005E
:100220009B0500009B0500009B0500009B0500004E
:100230009B0500009B0500009B0500009B0500003E
:100240009B0500009B0500009B0500009B0500002E
:100250009B0500009B0500009B0500009B0500001E
:100260009B0500009B0500009B0500009B0500000E
:100270009B0500009B0500009B0500009B050000FE
:100280009B0500009B0500009B0500009B050000EE
:100290009B0500009B0500009B0500009B050000DE
:1002A0008B0500008F050000930500009B050000F2
:1002B000970500009B0500009B0500009B050000C2
:1002C0009B0500009B0500009B0500009B050000AE
:1002D0009B0500009B0500009B0500009B0500009E
:1002E0009B0500009B0500009B0500009B0500008E
:1002F0009B0500009B0500009B0500009B0500007E
:100300009B0500009B0500009B0500009B0500006D
:100310009B0500009B0500009B0500009B0500005D
:100320009B0500009B0500009B0500009B0500004D
:100330009B0500009B0500009B0500009B0500003D
:100340009B0500009B0500009B0500009B0500002D
:100350009B0500009B0500009B0500009B0500001D
:100360009B0500009B0500009B0500009B0500000D
:100370009B0500009B0500009B0500009B050000FD
:100380009B0500009B0500009B0500009B050000ED
:100390009B0500009B0500009B0500009B050000DD
:1003A0009B0500009B0500009B0500009B050000CD
:1003B0009B0500009B0500009B0500009B050000BD
:1003C0009B0500009B0500009B0500009B050000AD
:1003D0009B0500009B0500009B0500009B0500009D
:1003E0009B0500009B0500009B0500009B0500008D
:1003F0009B0500009B0500009B050000FFFFFFFF21
:1004000000F002F800F03CF80AA090E8000C8244EA
:100410008344AAF10107DA4501D100F031F8AFF2C7
:10042000090EBAE80F0013F0010F18BFFB1A43F0D2
:10043000010318474417000064170000103A24BF56
:1004400078C878C1FAD8520724BF30C830C144BF39
:1004500004680C607047000000230024002500267B
:10046000103A28BF78C1FBD8520728BF30C148BF17
:100470000B6070471FB501F0E9FA1FBD10B510BD44
:10048000DFF80CD0FFF7F6FF01F072FA00F0DCF9AC
:100490000000022003B4FFF7F1FF03BC00F0C6F92F
:1004A00072B63F483F4901600A6882F308883E48B7
:1004B000804762B63D480047FEE7FEE7FEE7FEE7FD
:1004C000FEE7FEE7FEE7FEE7FEE73948004739486A
:1004D00000473948004739480047394800473948FC
:1004E00000473948004739480047394800473948EC
:1004F00000473948004739480047394800473948DC
:1005000000473948004739480047394800473948CB
:1005100000473948004739480047394800473948BB
:1005200000473948004739480047394800473948AB
:10053000004739480047394800473948004739489B
:10054000004739480047394800473948004739488B
:10055000004739480047394800473948004739487B
:10056000004739480047394800473948004739486B
:10057000004739480047394800473948004739485B
:10058000004739480047394800473948004739484B
:1005900000473948004739480047394800470000BC
:1005A00008ED00E000000000A118000001040000B8
:1005B0009B0500009B0500009B0500009B050000BB
:1005C0009B0500009B0500009B0500009B050000AB
:1005D0009B0500009B0500009B0500009B0500009B
:1005E0009B0500009B0500009B0500009B0500008B
:1005F0009B050000E1140000FD1400001915000027
:1006000035150000511500006D150000891500001A
:10061000A51500009B0500009B0500009B05000040
:100620009B0500009B0500009B0500009B0500004A
:100630009B0500009B0500009B0500009B0500003A
:100640009B0500009B0500009B0500009B0500002A
:100650009B0500009B0500009B0500009B0500001A
:100660009B0500009B0500009B0500009B0500000A
:100670009B0500009B0500009B0500009B050000FA
:100680009B05000053EA020C00F069802DE9F04B55
:100690004FF00006002B1FBFB3FA83F503FA05F4F1
:1006A00024FA05F65E4012BF1643B2FA82F502FA4A
:1006B00005F4C5F120051EBF22FA05FC44EA0C042E
:1006C000203556EA044C4FEA144418BF641C4FF01E
:1006D00000084FF00009904271EB030C39D3002958
:1006E00019BFB1FA81F701FA07F6B0FA80F700FAFC
:1006F00007F6C7F120071EBF20FA07FC46EA0C06E2
:100700002037B6FBF4FCA7EB0507103F07F01F0BE3
:10071000CBF120060CFA0BFB2CFA06F644BFB346CD
:100720000026202FA4BF5E464FF0000B5BEA060CAC
:1007300008BF4FF0010B19EB0B09ABFB027C48EB38
:100740000608C01B06FB02CC0BFB03CC71EB0C01B3
:10075000C1E70B46024641464846BDE8F08B13B55B
:100760004FF000004FF00001AFF30080BDE81C40E7
:10077000704700000EB5054614460E4613A000F063
:1007800044F8284600F041F816A000F03EF8304644
:1007900000F03BF815A000F038F800218DF80B10A0
:1007A0000A210DF10A008DF80A1008E094FBF1F21D
:1007B00001FB124294FBF1F4303200F8012D002CC1
:1007C000F4DC00F022F800F015F800002A2A2A20B4
:1007D000617373657274696F6E206661696C6564BC
:1007E0003A2000002C2066696C6520002C206C6982
:1007F0006E65200010B5002000F01EF8FFF73EFEE9
:10080000BDE81040012000F011B810B5044602E028
:10081000641C00F004F820780028F9D110BD08B558
:1008200069468DF800000320ABBE08BD01491820C1
:10083000ABBEFEE72600020010B500F013F8BDE8DD
:10084000104000F00AB8704710B50446AFF30080BE
:100850002046BDE81040FFF71DBE002801D0FFF77D
:10086000E5BF704710B5002102A000F013F8012089
:1008700010BD0000534947414252543A2041626E34
:100880006F726D616C207465726D696E6174696FF1
:100890006E00000070B505460C460A2000E06D1C95
:1008A000FFF7BDFF35B128780028F8D102E0641CBD
:1008B000FFF7B5FF14B120780028F8D1BDE87040EB
:1008C0000A20FFF7ACBF000010B54FF40040FE490E
:1008D000086000BFFD48006840F48030FC49C1F862
:1008E000C0020846D0F8C00220F40030C1F8C002AF
:1008F000F848F949086000BF002000F073FB00F0E1
:10090000A5FB012000F0F0FCF448006820F0FF0097
:1009100040F07F00F14908600121F14800F084FCBB
:100920000121F04800F080FCEF48C06820F01F0073
:1009300040F01300EC49C86000BFEB48006800F0CD
:100940000040B0F1004FF8D1E84800F01FFBE84844
:1009500000F0A6FB1B21002000F084FB10210120E9
:1009600000F080FB1821022000F07CFB1021032006
:1009700000F078FBDF4800F0DBFB2121002000F0D5
:10098000BBFB1021012000F0B7FB1121022000F079
:10099000B3FB1321032000F0AFFBCD48006920F02A
:1009A0004000CB49086100F09DFA0122D249C848B5
:1009B00000F08AFCD148006820F40040C449C1F826
:1009C00070010846D0F8700120F40000C1F87001F1
:1009D0000846006F40F40050086700F099FABC48E0
:1009E000D0F8A00040F48030B949C1F8A000084612
:1009F000D0F8700120F04040C1F870010846D0F8EE
:100A0000A00040F40050B249A031086000F072FA32
:100A10000122BB49AE4800F057FCB8489038006846
:100A200020F00300401CAA49C1F8E0000846D0F8B5
:100A3000E00040F40050C1F8E0000846D0F8E000C3
:100A400020F00C00C1F8E0000846D0F8E00040F4C7
:100A50008010C1F8E0000846D0F8E00040F4001033
:100A6000A6499039086000F04DFA0122A54998483E
:100A700000F02AFC9648006A40F40050944908624D
:100A80000021A14800F080FB4FF4887000F048FA84
:100A90004FF4847000F044FA40F2162000F040FA5F
:100AA0004FF4067000F03CFA0321984800F06CFB0C
:100AB0000121974800F068FB0321964800F0B4FB41
:100AC0000021884800F0B0FB0021934800F05CFB57
:100AD0000021834800F0A8FB4FF48A7000F020FA50
:100AE0004FF48B7000F01CFA182000F019FA1A204D
:100AF00000F016FA4FF4867000F012FA01218748D0
:100B000000F042FB0021864800F08EFB40F20260BC
:100B100000F006FA0121834800F036FB00218248EC
:100B200000F082FB40F2046000F0FAF901217F48F6
:100B300000F02AFB00217E4800F076FB4FF4417064
:100B400000F0EEF907214FF2140000F01DFB002128
:100B50007348F83000F068FB00217148083800F055
:100B600063FB40F20A6000F0DBF90021714800F0FD
:100B70000BFB0321704800F057FB40F2027000F0BD
:100B8000CFF900216D4800F0FFFA01215F48001DF8
:100B900000F04AFB40F2022000F0C2F90121614856
:100BA000183000F0F1FA0021654800F03DFB4FF4E9
:100BB000807000F0B5F94FF4817000F0B1F94FF496
:100BC000827000F0ADF94FF4837000F0A9F90421B0
:100BD0005148FC3800F0D8FA02215A4800F024FBB2
:100BE000162000F09DF90221574800F0CDFA0221AD
:100BF000564800F019FB40F2125000F091F9032121
:100C0000534800F0C1FA012144480C3000F0BCFA0E
:100C100000214B48E03000F007FB40F2145000F098
:100C20007FF903214A48001D00F0AEFA01213B483C
:100C3000103000F0A9FA00212948001D00F0F4FA54
:100C400040F2165000F06CF903213A48F43800F0F5
:100C50009BFA01213F4800F097FA00213B48001D14
:100C600000F0E2FA40F2062000F05AF94FF4027068
:100C700000F056F940F20A2000F052F900213648FF
:100C800000F082FA0021354800F0CEFA0E2000F084
:100C900047F9122000F044F940F2067000F040F9E4
:100CA000102000F03DF9142000F03AF94FF4E16013
:100CB00000F036F901212A4800F066FA02211348B3
:100CC0000C3000F0B1FA4DE008000020C0820D4069
:100CD00000800D4000366E010400002000C00F406F
:100CE000186C008014390014000008405C1A0000E1
:100CF000641A0000741A00000D00700070810D402D
:100D00000D00E0000D00200014EA000414680080CB
:100D100010E000401872008014FB00801CE0078087
:100D20001C26008024EB00801C30008024F0008012
:100D30001C3100801CF700801C7D008018FD0080A5
:100D40003C6900801864008024790080186E00805F
:100D500028E6008028F0078038F3078038320080CA
:100D600020E207804FF4A36000F0DAF81C2000F0C6
:100D7000D7F80C2000F0D4F84FF48C7000F0D0F8C5
:100D800040F2023000F0CCF840F2063000F0C8F833
:100D900040F21A5000F0C4F840F20E6000F0C0F8C3
:100DA0000021414800F0F0F90021404800F03CFAF1
:100DB00040F20A3000F0B4F801213D4800F0E4F9B7
:100DC00003213C4800F0E0F905213B4800F02CFAF3
:100DD00040F20E5000F0A4F80121384800F0D4F998
:100DE00007213448E83800F0CFF90321344800F0F7
:100DF0001BFA40F2025000F093F801212C48083809
:100E000000F0C2F907212F4800F0BEF903212E4857
:100E100000F00AFA4FF4407000F082F801212948EE
:100E2000083800F0B1F907212448083800F0ACF97F
:100E30000321264800F0F8F90021254800F0F4F9D4
:100E40002448D0F8600120F01F002249C1F8600159
:100E50002148006E20F070001F4908660846006EA9
:100E600020F00F00401C08660846006E20F4600069
:100E700008660846006E20F4F81040F490100866EA
:100E80000846006E20F4807008660846006E20F068
:100E9000800008660846006E20F0807008660F48E3
:100EA0000F49086010BD000024E007802426008060
:100EB00038EC008018F7008038EF008030F90080AF
:100EC0003074008030E9008030670080207300803B
:100ED0000C20008000800D4000C00F400046C3235E
:100EE000100000204FF4805001490867704700004F
:100EF00000800D404FF480500149086070470000A9
:100F0000E0800D40002001490862704700800D40DC
:100F10004FF480500149086070470000A0800D40E8
:100F20002DE9F0470446254600274FEA152805F02D
:100F30001F09B8F1070F00D805E040F2D33209A12C
:100F40000EA0FFF717FC104800EB8806306803215D
:100F500001FA09F1884307FA09F10843306000BF3C
:100F6000BDE8F0872E5C46534C4C49425C66736C7E
:100F70005F636C6F636B2E6800000000696E6465D0
:100F800078203C3D2037000068C00F4014490968B4
:100F900021F4404141F4803102794FF4404303EAA7
:100FA000823211430E4A11601146096841F27F02F4
:100FB000914341F40051027802F07F021143084A44
:100FC000116000BF0649096801F000410029F9D00D
:100FD0000349096821F48031014A1160704700001B
:100FE00000800D4010B5044604B904E09922104970
:100FF00010A0FFF7BFFB4FF080401249086000BF10
:101000001148006800F480300028F9D04FF4803097
:101010000C49091F086000BF0A480838006800F43E
:1010200000400028F8D04FF480300649086010BD19
:10103000AC1A0000216279706173735874616C4F4F
:101040007363000058810D4070820D4003480068B2
:1010500040F001000249C1F87002704770820D40F3
:1010600000800D4070B50A4601460B4C2468CE0046
:10107000BF25B54024EA0503CD008024AC401C43C5
:10108000064DC5F8004102F03F04CD00AC401C43C2
:10109000014D2C6070BD000000810D4000800D40AE
:1010A0001449096B21F4404141F48031027B4FF433
:1010B000404303EA823211430E4A11631146096B21
:1010C00041F20102914341F40051027802F0010221
:1010D0001143084A116300BF0649096B01F0004142
:1010E0000029F9D00349096B21F48031014A1163C9
:1010F0007047000000800D4070B50A4601460B4C59
:101100002468CE00BF25B54024EA0503CD00802425
:10111000AC401C43054DF03DC5F8F04002F03F04E3
:10112000CD00AC401C43014D2C6070BDF0800D40E3
:101130001449096921F4404141F4803142784FF467
:10114000404303EA823211430E4A11611146096994
:1011500021F0020141F441510278022303EA4202E4
:101160001143084A116100BF0649096901F00041B5
:101170000029F9D00349096921F48031014A11613C
:101180007047000000800D4070B504460E463F20B9
:1011900000EA9465E0B215494158C4F34C30C4F3F9
:1011A0000422904021EA0000C4F3042206FA02F16E
:1011B000C4F34C32C4F304239A4011400843E1B213
:1011C0000A4A8850202D00D805E040F2B13208A12B
:1011D0000DA0FFF7CFFA202D07D000BF0348806C89
:1011E0000121A94008400028F8D170BD00C00F407F
:1011F0002E5C46534C4C49425C66736C5F636C6F6B
:10120000636B2E680000000062757379536869662D
:1012100074203C3D2043434D5F4E4F5F4255535930
:101220005F5741495400000070B504460E463F2008
:1012300000EA9465E0B215494158C4F34C30C4F358
:101240000422904021EA0000C4F3042206FA02F1CD
:10125000C4F34C32C4F304239A4011400843E1B272
:101260000A4A8850202D00D805E04FF4637208A187
:101270000DA0FFF77FFA202D07D000BF0348806C38
:101280000121A94008400028F8D170BD00C00F40DE
:101290002E5C46534C4C49425C66736C5F636C6FCA
:1012A000636B2E680000000062757379536869668D
:1012B00074203C3D2043434D5F4E4F5F4255535990
:1012C0005F5741495400000010B532B14FF48033EC
:1012D000C1F30B440444636005E04FF48033C1F371
:1012E0000B440444A36010BD18B91021034A1160D7
:1012F00003E01021014A121D1160704774820D40F5
:1013000070B50546002406E0094850F82400A842BC
:1013100000D102E0641C0A2CF6D300BF0A2C00D2D4
:1013200004E03A22034904A0FFF724FA204670BDE6
:10133000781A0000F01A0000696E7374616E6365BC
:10134000203C2041525241595F53495A4528735F0E
:101350006770696F42617365732900002DE9F84F6A
:1013600004460D4616462046FFF7CAFF224931F9CA
:101370001070B846032000904FEA182A08F01F0B9F
:10138000BAF1070F00D805E040F2D3321B491CA088
:10139000FFF7F0F91D4800EB8A09D9F80000032196
:1013A00001FA0BF18843009901FA0BF10843C9F8DF
:1013B000000000BF00BF60690121A940884360614F
:1013C000307828B960680121A9408843606009E04D
:1013D00072782946204600F061F860680121A94032
:1013E00008436060B7783A462946204600F010F876
:1013F00000BFBDE8F88F0000A01A0000341B0000F9
:10140000696E646578203C3D2037000068C00F405D
:10141000F0B503460C462146DD690126A640B543DA
:10142000DD61102C02D203F10C0002E003F1100088
:101430001039062A2ED2DFE802F02D030A152027E4
:1014400005684F000326BE40B543056023E00568EC
:101450004F000326BE40B5434F000126BE40354332
:10146000056018E005684F000326BE40B5434F00F5
:101470000226BE40354305600DE005684F00032697
:10148000BE403543056006E0DD690126A6403543D0
:10149000DD6100E000BF00BFF0BD000070B5044694
:1014A0000D461646202D00D204E05A22084909A014
:1014B000FFF760F92EB920680121A9408843206018
:1014C00004E021680120A8400143216070BD0000B4
:1014D000F01A000070696E203C20333200000000DA
:1014E00010B5034841680348034A1268904710BD8D
:1014F00014000020004018400C00002010B50348E4
:1015000081680348034A1268904710BD1400002008
:10151000008018400C00002010B50348C168034843
:10152000034A1268904710BD1400002000C0184004
:101530000C00002010B5034801690348034A1268F3
:10154000904710BD14000020000019400C0000203E
:1015500010B5034841690348034A1268904710BD1B
:1015600014000020004019400C00002010B5034872
:1015700081690348034A1268904710BD1400002097
:10158000008019400C00002010B50348C1690348D1
:10159000034A1268904710BD1400002000C0194093
:1015A0000C00002010B50348016A0348034A126882
:1015B000904710BD1400002000001A400C000020CD
:1015C00010B50023234C236000BF00BF00BFBFF352
:1015D0004F8F00BF00BF00BF231F1868C0F34E31FC
:1015E00000BFC0F3C90200BF43F6E07303EA411332
:1015F0004FF0404404EA82742343174C236000BF39
:1016000000BF131EA2F10102EED10B1EA1F10101D8
:10161000E7D100BF00BF00BFBFF34F8F00BF00BFC7
:1016200000BF0C4B703B1B6843F48033094C703C8B
:10163000236000BF00BF00BFBFF34F8F00BF00BFDC
:1016400000BF00BF00BF00BFBFF36F8F00BF00BF70
:1016500000BF10BD84ED00E060EF00E000BF00BF00
:1016600000BFBFF34F8F00BF00BF00BF00BF00BF70
:1016700000BFBFF36F8F00BF00BF00BF0020144941
:10168000086000BF00BF00BFBFF34F8F00BF00BFA7
:1016900000BF00BF00BF00BFBFF36F8F00BF00BF20
:1016A00000BF0C48006840F400300A49086000BFE1
:1016B00000BF00BFBFF34F8F00BF00BF00BF00BF20
:1016C00000BF00BFBFF36F8F00BF00BF00BF7047F8
:1016D00050EF00E014ED00E00349086000BF02494C
:1016E00009680029FBD17047000000200448006809
:1016F00020B103480068401E01490860704700009F
:10170000000000202DE9F0416048406900F00070C1
:10171000002841D05D48806900F4405048B1B0F5E0
:10172000805F21D0B0F5005F20D0B0F5405F27D1B9
:1017300027E05748006900F4803048B154480069F8
:10174000C0F3813008B9534800E0002004460AE0A5
:101750004F48006900F0020008B1162000E0142094
:101760004C4900FB01F40EE04A4C0CE04848006B89
:10177000C0F3813008B9474800E00020044600BFAC
:1017800000BF002400BF00BF40484069C0F3C260F2
:10179000401CB4FBF0F46EE03D48006800F480307B
:1017A00048B13B480068C0F3813008B9394800E0CF
:1017B0000020064606E03648006800F07F00354904
:1017C000484346083248006B00F4803048B1304846
:1017D000006BC0F3813008B92E4800E000200546B8
:1017E0000AE02B48006B00F0010008B1162000E071
:1017F0001420284900FB01F52548D0F860C0254891
:101800002349096DA0FB017001466246002338465A
:10181000FEF738FF45191D48806900F4402048B1A3
:10182000B0F5802F08D0B0F5002F0FD0B0F5402FC5
:101830001ED115E02C461DE017480068C0F3054096
:10184000B5FBF0F000EBC000440013E01248006864
:1018500000F03F00B5FBF0F000EBC000440009E0F1
:101860000A48006900F00700401CB6FBF0F401E0F4
:10187000002400BF00BF05484069C0F38220401C1F
:10188000B4FBF0F005490860BDE8F08100C00F40EE
:1018900000800D4000366E0100810D4010000020D8
:1018A00010B52D48006840F470002B4908602B48A3
:1018B000008920F00100294908812948008920F089
:1018C0000100274908812548008800F0040028B15C
:1018D0002248008820F00400204908802048008821
:1018E00000F0040028B11E48008820F004001C49C4
:1018F00008801C481C4948604FF6FF708860084605
:10190000006820F0800040F0200008604FF0E020E8
:10191000006900F0010038B14FF0E020006920F0CC
:1019200001004FF0E02108610B487438006800F4B2
:101930000030B0F5003F01D0FFF790FE0648743844
:10194000006800F48030B0F5803F01D0FFF738FE2A
:1019500000F00CF810BD000088ED00E000800B40A6
:1019600000000D4020C528D900C00B407047000082
:1019700008B52F4800680090052100200246034664
:10198000102404EA03140C432A4D2C6000B10260B9
:1019900000BF294841F2B00100B1016000BFFEF76D
:1019A00093FFFFF7AFFE6A4609212448FFF7D6FCF4
:1019B000234800684FF47A72B0FBF2F1481EB0F190
:1019C000807F01D301201BE0481E4FF0E0225061D0
:1019D00050170F22002804DB13071C0E194B1C5450
:1019E00006E013071D0E184B00F00F04241F1D55B1
:1019F00000BF00204FF0E02290610720106100201E
:101A000008B100BFFEE711E0002209210B48FFF7F3
:101A100045FD4FF4FA70FFF75FFE012209210748E8
:101A2000FFF73CFD4FF4FA70FFF756FEECE70000BD
:101A3000581A0000E0801F40D0821F4000801B40E9
:101A40001000002000E400E018ED00E04FF04070CE
:101A5000E1EE100A70470000010000006400000081
:101A60000000000001000000000000000100000074
:101A700000000000000000000000000000801B408B
:101A800000C01B4000001C4000401C4000000C40F7
:101A900000000042004000420080004200C00042BE
:101AA000FFFF1A011E001A020C031E01433A5C4B91
:101AB00065696C5F76355C41524D5C5041434B5CCF
:101AC0004E58505C4D494D585254313036345F4475
:101AD00046505C31302E302E305C6472697665720F
:101AE000735C66736C5F636C6F636B2E63000000E6
:101AF000433A5C4B65696C5F76355C41524D5C5096
:101B000041434B5C4E58505C4D494D585254313016
:101B100036345F4446505C31302E302E305C647277
:101B200069766572735C66736C5F6770696F2E634C
:101B300000000000433A5C4B65696C5F76355C41A0
:101B4000524D5C5041434B5C4E58505C4D494D5892
:101B50005254313036345F4446505C31302E302E92
:101B6000305C647269766572735C66736C5F636C1B
:101B70006F636B2E68000000981B000000000020BF
:101B8000140000003C040000AC1B00001400002006
:101B900024000000580400000000000000000000C5
:0C1BA000000000000000000000A4781FFE
:0400000500000401F2
:00000001FF
