:020000040000FA
:1014000000000220A1180000B9180000BB1800005D
:10141000BD180000BF180000C11800000000000047
:10142000000000000000000000000000C3180000E1
:10143000C518000000000000C718000009340000B3
:10144000CB180000CF180000D3180000D7180000F8
:10145000DB180000DF180000E3180000E7180000A8
:10146000EB180000EF180000F3180000F718000058
:10147000FB180000FF180000031900000719000006
:101480000B1900009B1900009B1900009B1900001C
:10149000552C000013190000171900001B1900003B
:1014A0001F19000023190000271900002B19000044
:1014B0002F19000033190000371900003B190000F4
:1014C0003F19000043190000471900004B190000A4
:1014D0004F190000531900009B1900009B190000D0
:1014E0009B1900009B1900009B1900009B1900002C
:1014F0009B1900009B1900009B1900009B1900001C
:101500009B1900009B1900009B1900009B1900000B
:101510009B1900009B1900009B1900009B190000FB
:10152000571900005B1900005F19000063190000E3
:10153000671900009B1900009B1900009B1900000F
:101540009B1900009B1900009B1900009B190000CB
:101550009B1900009B1900009B1900009B190000BB
:101560009B1900009B1900009B1900009B190000AB
:101570009B1900009B1900009B1900009B1900009B
:101580009B1900009B1900009B1900009B1900008B
:101590009B1900009B1900009B1900009B1900007B
:1015A0009B1900009B1900006B1900006F190000C7
:1015B0009B1900009B1900009B1900009B1900005B
:1015C0009B1900009B1900009B1900009B1900004B
:1015D0009B1900009B1900009B1900009B1900003B
:1015E0009B1900009B1900009B1900007319000053
:1015F000771900009B1900007B1900007F1900007B
:101600009B1900009B190000831900008719000036
:101610009B1900009B1900009B1900009B190000FA
:101620009B1900009B1900009B1900009B190000EA
:101630009B1900009B1900009B1900009B190000DA
:101640009B1900009B1900009B1900009B190000CA
:101650009B1900009B1900009B1900009B190000BA
:101660009B1900009B1900009B1900009B190000AA
:101670009B1900009B1900009B1900009B1900009A
:101680009B1900009B1900009B1900009B1900008A
:101690009B1900009B1900009B1900009B1900007A
:1016A0008B1900008F190000931900009B1900008E
:1016B000971900009B1900009B1900009B1900005E
:1016C0009B1900009B1900009B1900009B1900004A
:1016D0009B1900009B1900009B1900009B1900003A
:1016E0009B1900009B1900009B1900009B1900002A
:1016F0009B1900009B1900009B1900009B1900001A
:101700009B1900009B1900009B1900009B19000009
:101710009B1900009B1900009B1900009B190000F9
:101720009B1900009B1900009B1900009B190000E9
:101730009B1900009B1900009B1900009B190000D9
:101740009B1900009B1900009B1900009B190000C9
:101750009B1900009B1900009B1900009B190000B9
:101760009B1900009B1900009B1900009B190000A9
:101770009B1900009B1900009B1900009B19000099
:101780009B1900009B1900009B1900009B19000089
:101790009B1900009B1900009B1900009B19000079
:1017A0009B1900009B1900009B1900009B19000069
:1017B0009B1900009B1900009B1900009B19000059
:1017C0009B1900009B1900009B1900009B19000049
:1017D0009B1900009B1900009B1900009B19000039
:1017E0009B1900009B1900009B1900009B19000029
:1017F0009B1900009B1900009B190000FFFFFFFFD1
:1018000000F002F800F03CF80AA090E8000C8244D6
:101810008344AAF10107DA4501D100F031F8AFF2B3
:10182000090EBAE80F0013F0010F18BFFB1A43F0BE
:10183000010318474C2200006C220000103A24BF1C
:1018400078C878C1FAD8520724BF30C830C144BF25
:1018500004680C6070470000002300240025002667
:10186000103A28BF78C1FBD8520728BF30C148BF03
:101870000B6070471FB502F04BF81FBD10B510BDCF
:10188000DFF80CD0FFF7F6FF01F0C4FF00F024FAF8
:101890000000022003B4FFF7F1FF03BC01F0F5FEE6
:1018A00072B63F483F4901600A6882F308883E48A3
:1018B000804762B63D480047FEE7FEE7FEE7FEE7E9
:1018C000FEE7FEE7FEE7FEE7FEE739480047394856
:1018D00000473948004739480047394800473948E8
:1018E00000473948004739480047394800473948D8
:1018F00000473948004739480047394800473948C8
:1019000000473948004739480047394800473948B7
:1019100000473948004739480047394800473948A7
:101920000047394800473948004739480047394897
:101930000047394800473948004739480047394887
:101940000047394800473948004739480047394877
:101950000047394800473948004739480047394867
:101960000047394800473948004739480047394857
:101970000047394800473948004739480047394847
:101980000047394800473948004739480047394837
:1019900000473948004739480047394800470000A8
:1019A00008ED00E000140000BD3500000118000043
:1019B0009B1900009B1900009B1900009B19000057
:1019C0009B1900009B1900009B1900009B19000047
:1019D0009B1900009B1900009B1900009B19000037
:1019E0009B1900009B1900009B1900009B19000027
:1019F0009B190000392C0000E92C0000052D000087
:101A0000212D00003D2D0000592D0000752D0000F6
:101A1000912D00009B1900009B1900009B190000EC
:101A20009B1900009B1900009B1900009B190000E6
:101A30009B1900009B1900009B1900009B190000D6
:101A40009B1900009B1900009B1900009B190000C6
:101A50009B1900009B1900009B1900009B190000B6
:101A60009B1900009B1900009B1900009B190000A6
:101A70009B1900009B1900009B1900009B19000096
:101A80009B19000053EA020C00F069802DE9F04B2D
:101A90004FF00006002B1FBFB3FA83F503FA05F4DD
:101AA00024FA05F65E4012BF1643B2FA82F502FA36
:101AB00005F4C5F120051EBF22FA05FC44EA0C041A
:101AC000203556EA044C4FEA144418BF641C4FF00A
:101AD00000084FF00009904271EB030C39D3002944
:101AE00019BFB1FA81F701FA07F6B0FA80F700FAE8
:101AF00007F6C7F120071EBF20FA07FC46EA0C06CE
:101B00002037B6FBF4FCA7EB0507103F07F01F0BCF
:101B1000CBF120060CFA0BFB2CFA06F644BFB346B9
:101B20000026202FA4BF5E464FF0000B5BEA060C98
:101B300008BF4FF0010B19EB0B09ABFB027C48EB24
:101B40000608C01B06FB02CC0BFB03CC71EB0C019F
:101B5000C1E70B46024641464846BDE8F08B13B547
:101B60004FF000004FF00001AFF30080BDE81C40D3
:101B7000704700000FB4044910B503AA029800F0A2
:101B800045F810BC5DF814FB040000200EB50546B6
:101B900014460E4613A000F056F8284600F053F8FD
:101BA00016A000F050F8304600F04DF815A000F0F7
:101BB0004AF800218DF80B100A210DF10A008DF86A
:101BC0000A1008E094FBF1F201FB124294FBF1F4DD
:101BD000303200F8012D002CF4DC00F034F800F075
:101BE00027F800002A2A2A20617373657274696FCE
:101BF0006E206661696C65643A2000002C2066697D
:101C00006C6520002C206C696E652000074B70B558
:101C10000D467B4400F02DF80446284600F03CF8C1
:101C200010B14FF0FF3070BD204670BD7B1A000030
:101C300010B5002000F034F8FFF720FEBDE810409A
:101C4000012001F022BD10B5044602E0641C00F042
:101C500004F820780028F9D110BD08B569468DF840
:101C600000000320ABBE08BD01694A1C0261087870
:101C7000704700B58FB0CDE90131002105910549CC
:101C80007944CDE903101146684600F011F80FB011
:101C900000BD0000E5FFFFFF007B00F08000704703
:101CA00010B500F027F8BDE8104000F01EB87047EE
:101CB0002DE9F04106460024D6E90170F56880461A
:101CC000304603E04146B847641C3046A847002828
:101CD000F8D12046BDE8F08110B50446AFF300808E
:101CE0002046BDE81040FFF7D5BD002801D001F027
:101CF000CCBC704710B5002102A000F013F8012001
:101D000010BD0000534947414252543A2041626E8F
:101D10006F726D616C207465726D696E6174696F4C
:101D20006E00000070B505460C460A2000E06D1CF0
:101D3000FFF793FF35B128780028F8D102E0641C42
:101D4000FFF78BFF14B120780028F8D1BDE8704070
:101D50000A20FFF782BF000010B54FF40040FE4993
:101D6000086000BFFD48006840F48030FC49C1F8BD
:101D7000C0020846D0F8C00220F40030C1F8C0020A
:101D8000F848F949086000BF002000F001FD00F0AC
:101D900033FD012000F0FCFEF448006820F0FF0055
:101DA00040F07F00F14908600121F14800F090FE09
:101DB0000121F04800F08CFEEF48C06820F01F00C1
:101DC00040F01300EC49C86000BFEB48006800F029
:101DD0000040B0F1004FF8D1E84800F0ADFCE84811
:101DE00000F034FD1B21002000F012FD1021012025
:101DF00000F00EFD1821022000F00AFD1021032042
:101E000000F006FDDF4800F069FD2121002000F010
:101E100049FD1021012000F045FD1121022000F0B4
:101E200041FD1321032000F03DFDCD48006920F065
:101E30004000CB49086100F0C5FA0122D249C848E8
:101E400000F096FED148006820F40040C449C1F873
:101E500070010846D0F8700120F40000C1F870014C
:101E60000846006F40F40050086700F0C1FABC4813
:101E7000D0F8A00040F48030B949C1F8A00008466D
:101E8000D0F8700120F04040C1F870010846D0F849
:101E9000A00040F40050B249A031086000F09AFA66
:101EA0000122BB49AE4800F063FEB8489038006894
:101EB00020F00300401CAA49C1F8E0000846D0F811
:101EC000E00040F40050C1F8E0000846D0F8E0001F
:101ED00020F00C00C1F8E0000846D0F8E00040F423
:101EE0008010C1F8E0000846D0F8E00040F400108F
:101EF000A6499039086000F075FA0122A549984872
:101F000000F036FE9648006A40F40050944908629A
:101F10000021A14800F046FD4FF4887000F070FAEF
:101F20004FF4847000F06CFA40F2162000F068FA6A
:101F30004FF4067000F064FA0321984800F032FD77
:101F40000121974800F02EFD0321964800F0C0FDC6
:101F50000021884800F0BCFD0021934800F022FDDC
:101F60000021834800F0B4FD4FF48A7000F048FA75
:101F70004FF48B7000F044FA182000F041FA1A2058
:101F800000F03EFA4FF4867000F03AFA01218748DB
:101F900000F008FD0021864800F09AFD40F2026042
:101FA00000F02EFA0121834800F0FCFC0021824859
:101FB00000F08EFD40F2046000F022FA01217F481B
:101FC00000F0F0FC00217E4800F082FD4FF44170EB
:101FD00000F016FA07214FF2140000F0E3FC002194
:101FE0007348F83000F074FD00217148083800F0A3
:101FF0006FFD40F20A6000F003FA0021714800F022
:10200000D1FC0321704800F063FD40F2027000F043
:10201000F7F900216D4800F0C5FC01215F48001D63
:1020200000F056FD40F2022000F0EAF9012161487B
:10203000183000F0B7FC0021654800F049FD4FF46E
:10204000807000F0DDF94FF4817000F0D9F94FF4A1
:10205000827000F0D5F94FF4837000F0D1F90421BB
:102060005148FC3800F09EFC02215A4800F030FD37
:10207000162000F0C5F90221574800F093FC022118
:10208000564800F025FD40F2125000F0B9F9032146
:10209000534800F087FC012144480C3000F082FCDA
:1020A00000214B48E03000F013FD40F2145000F0E6
:1020B000A7F903214A48001D00F074FC01213B48A8
:1020C000103000F06FFC00212948001D00F000FDD9
:1020D00040F2165000F094F903213A48F43800F029
:1020E00061FC01213F4800F05DFC00213B48001DE0
:1020F00000F0EEFC40F2062000F082F94FF402708E
:1021000000F07EF940F20A2000F07AF9002136480A
:1021100000F048FC0021354800F0DAFC0E2000F009
:102120006FF9122000F06CF940F2067000F068F9C7
:10213000102000F065F9142000F062F94FF4E1601E
:1021400000F05EF901212A4800F02CFC022113481E
:102150000C3000F0BDFC4DE010000020C0820D40AE
:1021600000800D4000366E010C00002000C00F40C2
:10217000186C008014390014000008401C3900005D
:1021800024390000343900000D00700070810D40CA
:102190000D00E0000D00200014EA00041468008027
:1021A00010E000401872008014FB00801CE00780E3
:1021B0001C26008024EB00801C30008024F000806E
:1021C0001C3100801CF700801C7D008018FD008001
:1021D0003C6900801864008024790080186E0080BB
:1021E00028E6008028F0078038F307803832008026
:1021F00020E207804FF4A36000F002F91C2000F0F9
:10220000FFF80C2000F0FCF84FF48C7000F0F8F8A8
:1022100040F2023000F0F4F840F2063000F0F0F83E
:1022200040F21A5000F0ECF840F20E6000F0E8F8CE
:102230000021414800F0B6FB0021404800F048FC76
:1022400040F20A3000F0DCF801213D4800F0AAFB22
:1022500003213C4800F0A6FB05213B4800F038FC78
:1022600040F20E5000F0CCF80121384800F09AFB03
:1022700007213448E83800F095FB0321344800F08A
:1022800027FC40F2025000F0BBF801212C4808382E
:1022900000F088FB07212F4800F084FB03212E4823
:1022A00000F016FC4FF4407000F0AAF80121294814
:1022B000083800F077FB07212448083800F072FB4B
:1022C0000321264800F004FC0021254800F000FC12
:1022D0002448D0F8600120F01F002249C1F86001B5
:1022E0002148006E20F070001F4908660846006E05
:1022F00020F00F00401C08660846006E20F46000C5
:1023000008660846006E20F4F81040F49010086645
:102310000846006E20F4807008660846006E20F0C3
:10232000800008660846006E20F0807008660F483E
:102330000F49086010BD000024E0078024260080BB
:1023400038EC008018F7008038EF008030F900800A
:102350003074008030E90080306700802073008096
:102360000C20008000800D4000C00F400046C323B9
:10237000180000202DE9F04104460E46270A04F01B
:102380001F08072F00D805E040F2D332084909A002
:10239000FFF7FCFB0A4800EB87052868032101FAD8
:1023A00008F1884306FA08F108432860BDE8F08187
:1023B000303A0000696E646578203C3D20370000AB
:1023C00068C00F404FF48050014908677047000013
:1023D00000800D404FF480500149086070470000B4
:1023E000E0800D40002001490862704700800D40E8
:1023F0004FF480500149086070470000A0800D40F4
:102400002DE9F0470446254600274FEA152805F038
:102410001F09B8F1070F00D805E040F2D33209A137
:102420000EA0FFF7B3FB104800EB880630680321CD
:1024300001FA09F1884307FA09F10843306000BF47
:10244000BDE8F0872E5C46534C4C49425C66736C89
:102450005F636C6F636B2E6800000000696E6465DB
:1024600078203C3D2037000068C00F400146C8B2CC
:10247000054A8058C1F34C32C1F304239A401040FE
:10248000C1F30422D040704700C00F4004480068E8
:1024900000F0100008B10348704703480068FBE7EC
:1024A00070820D4000366E010C0000202DE9F041D5
:1024B0002DED028B84B00546994BD3E901021968D2
:1024C000DB6801AC0DC4009196492846C0F30B426D
:1024D0008A5800F01F070123BB401A400AB10122AD
:1024E00000E000222AB9002004B0BDEC028BBDE858
:1024F000F0818C4FA846C8F30B403858C0F38130A8
:1025000010B9FFF7C3FF00E0002004468548C5F37B
:102510000B414158C1F3004109B12046E4E782492B
:10252000681A8D4252D00CDC0D2D18D0A5F5801004
:102530000D38B8B3B0F5801F71D0B0F5001F6FD162
:1025400014E0B0F5401F6CD0B0F5E00F6AD0A0F5F4
:10255000E000C01F002878D00128F0D1CEE07148FB
:10256000006800F07F0060434408D5E06D48006DCE
:1025700000EE100AB8EE401B00EE104AB8EE400B19
:1025800021EE001B6748006E00EE100AB8EE400B0B
:1025900081EE008B6348006B00F0010018B116203B
:1025A000444303E008E004EB84008400BCEEC80B65
:1025B00010EE100A0444AFE05A48006900F002002F
:1025C00008B1162000E014204443A5E05548006FF0
:1025D00000F07F0653488030006800EE100AB8EE25
:1025E000401B00EE104AB8EE400B21EE001B4D4898
:1025F000D0F8900000EE100AB8EE400B81EE008B90
:10260000BCEEC80B10EE100A04FB06044548006F30
:1026100000F4C01038B1B0F5002F08D105E06FE02C
:1026200078E018E05AE0A40802E0640800E000BF87
:1026300000BF3E4800683E490840B0F5004F05D055
:102640004942084420B9A40803E04FE0640800E0D0
:1026500000BF00BF60E03348A030006800F07F0694
:102660003048D0F8B00000EE100AB8EE401B00EE83
:10267000104AB8EE400B21EE001B2C48B038006821
:1026800000EE100AB8EE400B81EE008BBCEEC80BDA
:1026900010EE100A04FB06042248D0F8A00000F453
:1026A000C01018B1B0F5002F04D101E0A40802E079
:1026B000640800E000BF00BF1C48006800F0404014
:1026C000B0F1404F03D0B0F1804F04D101E0A40835
:1026D00002E0640800E000BF00BF1DE0134890382E
:1026E000006800F003065DF8264015E00F489038BA
:1026F0000068C0F381065DF826400DE00D4C0BE04C
:102700000848006A00F0020008B1162000E014201A
:10271000444301E0002400BF00BF2046E4E600007F
:102720003839000000800D400D00700070810D40B0
:102730000080800040787D011449096821F44041FF
:1027400041F4803102794FF4404303EA823211436D
:102750000E4A11601146096841F27F02914341F42B
:102760000051027802F07F021143084A116000BF55
:102770000649096801F000410029F9D003490968B8
:1027800021F48031014A11607047000000800D4043
:1027900010B5044604B904E09922104910A0FFF7CF
:1027A000F5F94FF080401249086000BF11480068F9
:1027B00000F480300028F9D04FF480300C49091F14
:1027C000086000BF0A480838006800F4004000288C
:1027D000F8D04FF480300649086010BD90390000F1
:1027E000216279706173735874616C4F7363000078
:1027F00058810D4070820D400348006840F0010090
:102800000249C1F87002704770820D4000800D408F
:1028100070B50A4601460B4C2468CE00BF25B54072
:1028200024EA0503CD008024AC401C43064DC5F8C6
:10283000004102F03F04CD00AC401C43014D2C6030
:1028400070BD000000810D4000800D401449096BEF
:1028500021F4404141F48031027B4FF4404303EACC
:10286000823211430E4A11631146096B41F2010293
:10287000914341F40051027802F001021143084AE9
:10288000116300BF0649096B01F000410029F9D02E
:102890000349096B21F48031014A1163704700003C
:1028A00000800D4070B50A4601460B4C2468CE00EE
:1028B000BF25B54024EA0503CD008024AC401C436D
:1028C000054DF03DC5F8F04002F03F04CD00AC40AE
:1028D0001C43014D2C6070BDF0800D401449096906
:1028E00021F4404141F4803142784FF4404303EAFF
:1028F000823211430E4A11611146096921F0020129
:1029000041F441510278022303EA42021143084A8A
:10291000116100BF0649096901F000410029F9D0A1
:102920000349096921F48031014A116170470000AF
:1029300000800D4070B504460E463F2000EA9465C5
:10294000E0B215494158C4F34C30C4F3042290401E
:1029500021EA0000C4F3042206FA02F1C4F34C3267
:10296000C4F304239A4011400843E1B20A4A885054
:10297000202D00D805E040F2B13208490848FFF7A1
:1029800005F9202D07D000BF0348806C0121A94024
:1029900008400028F8D170BD00C00F40D4370000B7
:1029A000B02A000070B504460E463F2000EA946548
:1029B000E0B215494158C4F34C30C4F304229040AE
:1029C00021EA0000C4F3042206FA02F1C4F34C32F7
:1029D000C4F304239A4011400843E1B20A4A8850E4
:1029E000202D00D805E040F2B13208A10DA0FFF77C
:1029F000CDF8202D07D000BF0348806C0121A940ED
:102A000008400028F8D170BD00C00F402E5C46532E
:102A10004C4C49425C66736C5F636C6F636B2E68F1
:102A200000000000627573795368696674203C3D4C
:102A30002043434D5F4E4F5F425553595F574149C5
:102A40005400000070B504460E463F2000EA94652D
:102A5000E0B215494158C4F34C30C4F3042290400D
:102A600021EA0000C4F3042206FA02F1C4F34C3256
:102A7000C4F304239A4011400843E1B20A4A885043
:102A8000202D00D805E04FF46372084908A0FFF735
:102A90007DF8202D07D000BF0348806C0121A9409C
:102AA00008400028F8D170BD00C00F40D4370000A6
:102AB000627573795368696674203C3D2043434DC9
:102AC0005F4E4F5F425553595F57414954000000D4
:102AD00070B504460E463F2000EA9465E0B2154901
:102AE0004158C4F34C30C4F30422904021EA000062
:102AF000C4F3042206FA02F1C4F34C32C4F30423F3
:102B00009A4011400843E1B20A4A8850202D00D86B
:102B100005E04FF4637208A10DA0FFF737F8202DF0
:102B200007D000BF0348806C0121A940084000285D
:102B3000F8D170BD00C00F402E5C46534C4C49424A
:102B40005C66736C5F636C6F636B2E6800000000E3
:102B5000627573795368696674203C3D2043434D28
:102B60005F4E4F5F425553595F5741495400000033
:102B700010B532B14FF48033C1F30B4404446360A9
:102B800005E04FF48033C1F30B440444A36010BD4F
:102B900018B91021034A116003E01021014A121DE7
:102BA0001160704774820D4030B5164800684FF4CC
:102BB0007A72B0FBF2F1481EB0F1807F01D30120A0
:102BC0001BE0481E4FF0E022506150170F220028F2
:102BD00004DB13071C0E0C4B1C5406E013071D0EE0
:102BE0000A4B00F00F04241F1D5500BF00204FF0BA
:102BF000E022906107201061002008B100BFFEE7CD
:102C000030BD00001800002000E400E018ED00E0F6
:102C100030B5DDE9034504B1256030BDF0B5DDE92F
:102C2000055401F00F06102707EA04173E4306601B
:102C300002B11360F0BD000010B5034841680348BD
:102C4000034A1268904710BDF80000200040184069
:102C50001400002000202149496901F4001109B342
:102C60001E49C969C8B21E49098801F40041C9B9A1
:102C70001B49098801F4804161B10A2803D0002171
:102C8000174A118020E01649098841F40041144A8E
:102C9000118019E00D2806D11149098841F48041BD
:102CA0000F4A118010E00E490988C1F30D010D4A49
:102CB00050540B490988491C094A1180114609885A
:102CC000C72901DD0021118000BF00BF00BFBFF395
:102CD0004F8F00BF00BF00BF70470000004018408A
:102CE000080000203000002010B503488168034828
:102CF000034A1268904710BDF80000200080184079
:102D00001400002010B50348C1680348034A126844
:102D1000904710BDF800002000C0184014000020AB
:102D200010B5034801690348034A1268904710BD73
:102D3000F8000020000019401400002010B50348DE
:102D400041690348034A1268904710BDF80000200B
:102D5000004019401400002010B503488169034861
:102D6000034A1268904710BDF80000200080194007
:102D70001400002010B50348C1690348034A1268D3
:102D8000904710BDF800002000C01940140000203A
:102D900010B50348016A0348034A1268904710BD02
:102DA000F800002000001A401400002002694FF4CF
:102DB000404303EA01231A430261826A22F440324B
:102DC0004FF4407303EA01231A43826221F0FF01AA
:102DD00082690A438261704710B5044604B105E078
:102DE0004FF4E4720B490CA0FEF7D0FE4FF4E13033
:102DF0002060002020716071A071E071207260720B
:102E0000A072E07260732073A073E073207460742A
:102E100010BD0000E0390000636F6E666967000056
:102E200070B50546002406E0094850F82400A84281
:102E300000D102E0641C092CF6D300BF092C00D29B
:102E400004E07422034904A0FEF7A0FE204670BDF2
:102E500048390000E0390000696E7374616E636583
:102E6000203C2041525241595F53495A4528735FD3
:102E70006C707561727442617365732900000000A3
:102E80002DE9F04F85B004460D46914605B104E0AA
:102E9000CA22844984A0FEF779FE286800B104E0C4
:102EA000CB22804982A0FEF771FE287A042800DC3C
:102EB00004E0CD227B4984A0FEF768FE687A0428EE
:102EC00000DC04E0CE2277498FA0FEF75FFE286881
:102ED00002904FF0000A00200490042731E0286897
:102EE0007843B9FBF0F01FFA80F8B8F1000F01D178
:102EF0004FF0010807FB08F0B9FBF0F003902968D8
:102F00000398A0EB010B08F101007843B9FBF0F046
:102F10002968081A58450BD208F101007843B9FB1B
:102F2000F0F02968A1EB000B08F101001FFA80F80E
:102F30000298834504D8CDF808B0BA46CDF8108081
:102F40007F1C202FCBD964212868B0FBF1F000EB67
:102F500040010298814204D240F2215005B0BDE800
:102F6000F08F2046FFF75CFF01907749019831F917
:102F70001000009003210098FFF7FCF900BF00BF8C
:102F8000A06840F00200A060A06820F00200A060ED
:102F900000BF2669BAF1030F04D9BAF1080F01D2B4
:102FA00046F4003626F0F856AAF101004FF0F85129
:102FB00001EA006006436FF30C060498C0F30C00AE
:102FC00030432061206920F000502061A06940F268
:102FD000177120EA01062879E97B4FF4E06202EAE2
:102FE00001210843A97B042202EA81010843064328
:102FF0006879012807D1287910B126F4006606E027
:1030000046F4006603E0287908B146F01006A66190
:10301000206920F40056E8794FF4005101EA40306D
:1030200030432061287A697A40EA0140E062A06A70
:1030300040F08800A062A06A40F44040A062434E85
:1030400046F0004646F44046687B102101EA001035
:10305000297B202202EA41110843616A0843606229
:10306000A87A18B1606A40F008006062E87A18B186
:10307000606A40F001006062A87910B146F0005625
:1030800001E026F00056606930436061A669287C43
:1030900008B146F40026687C08B146F48026A66193
:1030A00000205BE7E0390000636F6E66696700002F
:1030B000636F6E6669672D3E626175645261746507
:1030C0005F4270730000000046534C5F4645415418
:1030D0005552455F4C50554152545F4649464F5FEB
:1030E00053495A456E286261736529203E3D20632D
:1030F0006F6E6669672D3E74784669666F576174B6
:1031000065726D61726B000046534C5F46454154D9
:103110005552455F4C50554152545F4649464F5FAA
:1031200053495A456E286261736529203E3D2063EC
:103130006F6E6669672D3E72784669666F57617477
:1031400065726D61726B00007E39000000001F40E7
:1031500070B51648C1B2164A8958C0F34C32C0F354
:1031600004239A401140C0F30422D14061B91148B0
:10317000FFF79CF90621B0FBF1F50F48FFF776F950
:10318000401CB5FBF0F40FE000BF0C48006800F0F5
:10319000100008B10A4D01E00A4805680648FFF72B
:1031A00065F9401CB5FBF0F4204670BD2426008074
:1031B00000C00F400D00100024E0078070820D4019
:1031C00000366E010C00002070B505460C46164610
:1031D00004B105E040F28F2209490AA0FEF7D6FCAF
:1031E00008E000BF686900F400000028FAD014F875
:1031F000010BE861301EA6F10106F2D170BD00009E
:10320000E039000064617461000000002DE9F04FB6
:1032100005460E461746002000BF24490968C1F341
:103220000221084629460346B446B8461C46C4F166
:10323000070BBBF1040F02D94FF0040B01E0C4F1FE
:10324000070BDA4604F1040BBBF1070F02D24FF073
:10325000000B01E0A4F1030BD9464FF0010B0BFA70
:103260000AFBABF1010B0BEA0C0B0BFA09FB4FF05D
:10327000010E0EFA09FEAEF1010E0EEA080E4BEA3F
:103280000E0200BF002904DB13071C0E084B5C5420
:1032900009E013074FEA136C044B0C3301F00F04E1
:1032A000241F03F804C000BFBDE8F08F0CED00E060
:1032B00000E400E000BF00F00702064B19684FF67B
:1032C000FF031940044B0B4343EA0221014B1960F1
:1032D00000BF70470CED00E00000FA0510B50023B8
:1032E000234C236000BF00BF00BFBFF34F8F00BF60
:1032F00000BF00BF231F1868C0F34E3100BFC0F3EA
:10330000C90200BF43F6E07303EA41134FF04044A3
:1033100004EA82742343174C236000BF00BF131ECE
:10332000A2F10102EED10B1EA1F10101E7D100BF14
:1033300000BF00BFBFF34F8F00BF00BF00BF0C4BEB
:10334000703B1B6843F48033094C703C236000BF22
:1033500000BF00BFBFF34F8F00BF00BF00BF00BF63
:1033600000BF00BFBFF36F8F00BF00BF00BF10BD25
:1033700084ED00E060EF00E000BF00BF00BFBFF3DE
:103380004F8F00BF00BF00BF00BF00BF00BFBFF333
:103390006F8F00BF00BF00BF00201449086000BF4E
:1033A00000BF00BFBFF34F8F00BF00BF00BF00BF13
:1033B00000BF00BFBFF36F8F00BF00BF00BF0C484E
:1033C000006840F400300A49086000BF00BF00BF39
:1033D000BFF34F8F00BF00BF00BF00BF00BF00BFE3
:1033E000BFF36F8F00BF00BF00BF704750EF00E01A
:1033F00014ED00E00349086000BF02490968002994
:10340000FBD17047000000200448006820B1034849
:103410000068401E0149086070470000000000205D
:103420002DE9F0416048406900F00070002841D06B
:103430005D48806900F4405048B1B0F5805F21D00C
:10344000B0F5005F20D0B0F5405F27D127E05748A6
:10345000006900F4803048B154480069C0F38130FD
:1034600008B9534800E0002004460AE04F480069CC
:1034700000F0020008B1162000E014204C4900FBC7
:1034800001F40EE04A4C0CE04848006BC0F3813078
:1034900008B9474800E00020044600BF00BF0024F0
:1034A00000BF00BF40484069C0F3C260401CB4FB8D
:1034B000F0F46EE03D48006800F4803048B13B48CD
:1034C0000068C0F3813008B9394800E000200646A2
:1034D00006E03648006800F07F003549484346085A
:1034E0003248006B00F4803048B13048006BC0F3C4
:1034F000813008B92E4800E0002005460AE02B483C
:10350000006B00F0010008B1162000E014202849EB
:1035100000FB01F52548D0F860C025482349096D16
:10352000A0FB01700146624600233846FEF7AAFA66
:1035300045191D48806900F4402048B1B0F5802F3E
:1035400008D0B0F5002F0FD0B0F5402F1ED115E0F8
:103550002C461DE017480068C0F30540B5FBF0F0AD
:1035600000EBC000440013E01248006800F03F0088
:10357000B5FBF0F000EBC000440009E00A48006928
:1035800000F00700401CB6FBF0F401E0002400BF8F
:1035900000BF05484069C0F38220401CB4FBF0F036
:1035A00005490860BDE8F08100C00F4000800D4073
:1035B00000366E0100810D401800002010B52D4826
:1035C000006840F470002B4908602B48008920F007
:1035D0000100294908812948008920F00100274974
:1035E00008812548008800F0040028B1224800889E
:1035F00020F00400204908802048008800F00400E2
:1036000028B11E48008820F004001C4908801C488E
:103610001C4948604FF6FF7088600846006820F03B
:10362000800040F0200008604FF0E020006900F0CA
:10363000010038B14FF0E020006920F001004FF0A8
:10364000E02108610B487438006800F40030B0F5E0
:10365000003F01D0FFF790FE06487438006800F480
:103660008030B0F5803F01D0FFF738FE00F00CF855
:1036700010BD000088ED00E000800B4000000D4010
:1036800020C528D900C00B40704700BF704700001C
:1036900000BF054A526902F40002002AF9D0C2B202
:1036A000014BDA6170470000004018402DE9FC5FD3
:1036B0000746FEF751FBFFF7B3FE4FF000094FF44A
:1036C000A36425464FF003084FEA152A05F01F0BA7
:1036D000BAF1070F00D805E040F2D3323DA143A074
:1036E000FEF754FA444800EB8A063068032101FAD9
:1036F0000BF1884308FA0BF10843306000BF00BFAC
:1037000000213E48FFF79EF900213D48FFF712F9DE
:1037100000203C4903460246CDE9001002213A4808
:10372000FFF77CFA00203749091D03460246CDE920
:10373000001002213448001DFFF770FA41F2B0007A
:10374000304900231A46CDE9001002212E48FFF728
:103750005FFA41F2B0002B49091D00231A46CDE95A
:10376000001002212848001DFFF752FAFFF7F0FC75
:1037700081462648FFF730FB244807600020234994
:103780004871C87108710120487408744A4620487D
:10379000FFF776FB4FF400111D48FFF707FB0022EF
:1037A00005211420FFF732FD142010F1800F00D105
:1037B0000EE00146002909DB01F01F0301229A40B7
:1037C0004B099B0003F1E023C3F8002100BF00BFB9
:1037D000BDE8FC9F2E5C46534C4C49425C66736CC2
:1037E0005F636C6F636B2E6800000000696E646538
:1037F00078203C3D2037000068C00F402426008020
:1038000024E00780DC821F40EC801F401C00002069
:103810000040184000240025FFF7C6F90320FFF7F9
:1038200049FD4FF4E130FFF741FF30E018480088D0
:1038300000F4004080B11648057816A0FEF79AF90A
:103840002A461A491A48FFF7BFFC1AA0FEF792F958
:1038500000200F4908801AE0601C84B24FF4FA700F
:1038600094FBF0F100FB114028B914A0FEF782F997
:103870001BA0FEF77FF9C82094FBF0F100FB11407C
:1038800010B91CA0FEF776F90A20FFF7B3FDCDE7CB
:10389000080000200D0A20C4FAB7A2CBCDB5C4CFD2
:1038A000FBCFA2CEAA3A0D0A000000003000002093
:1038B000004018400D0A0D0A000000000D0A414C9E
:1038C00049454E54454B2052543130353220BFAA21
:1038D000B7A2B0E520B4AEBFDACAB5D1E90D0A008F
:1038E000D5FDB5E3D4ADD7D340414C49454E544501
:1038F0004B0D0A00C7EBCAE4C8EBCAFDBEDD2CD2F3
:10390000D4BBD8B3B5BCFCBDE1CAF80D0A000000B9
:103910004FF04070E1EE100A7047000064000000B4
:103920000000000001000000000000000100000095
:10393000000000000000000040787D0180F0FA02E5
:1039400000E1F505405973070000000000401840F1
:103950000080184000C01840000019400040194085
:103960000080194000C0194000001A4080FF140078
:10397000150016001700180019001A001B00FFFFA1
:1039800018051C000C001801020306031A050E0698
:10399000463A5C50726F6772616D2046696C657360
:1039A0007838365C4D444B5C41524D5C5041434B42
:1039B0005C4E58505C4D494D585254313036345F4E
:1039C0004446505C31302E302E305C64726976652E
:1039D00072735C66736C5F636C6F636B2E63000065
:1039E000463A5C50726F6772616D2046696C657310
:1039F0007838365C4D444B5C41524D5C5041434BF2
:103A00005C4E58505C4D494D585254313036345FFD
:103A10004446505C31302E302E305C6472697665DD
:103A200072735C66736C5F6C70756172742E630088
:103A3000463A5C50726F6772616D2046696C6573BF
:103A40007838365C4D444B5C41524D5C5041434BA1
:103A50005C4E58505C4D494D585254313036345FAD
:103A60004446505C31302E302E305C64726976658D
:103A700072735C66736C5F636C6F636B2E680000BF
:103A8000A03A0000000000201C0000003C180000CC
:103A9000BC3A00001C000020000100005818000083
:103AA0000000000000000000000000000000000016
:0C3AB000000000000000000000A4781FCF
:0400000500001801DE
:00000001FF
