:0200000470008A
:10000000464346420004015600000000010303007D
:1000100000000000000000000000000000000000E0
:1000200000000000000000000000000000000000D0
:1000300000000000000000000000000000000000C0
:1000400000000000000406000000000000000000A6
:100050000000800000000000000000000000000020
:100060000000000000000000000000000000000090
:100070000000000000000000000000000000000080
:10008000EB04180A063204260000000000000000FD
:100090000000000000000000000000000000000060
:1000A0000000000000000000000000000000000050
:1000B0000000000000000000000000000000000040
:1000C0000000000000000000000000000000000030
:1000D0000000000000000000000000000000000020
:1000E0000000000000000000000000000000000010
:1000F0000000000000000000000000000000000000
:1001000000000000000000000000000000000000EF
:1001100000000000000000000000000000000000DF
:1001200000000000000000000000000000000000CF
:1001300000000000000000000000000000000000BF
:1001400000000000000000000000000000000000AF
:10015000000000000000000000000000000000009F
:10016000000000000000000000000000000000008F
:10017000000000000000000000000000000000007F
:10018000000000000000000000000000000000006F
:10019000000000000000000000000000000000005F
:1001A000000000000000000000000000000000004F
:1001B000000000000000000000000000000000003F
:1001C000000100000010000000000000000000001E
:1001D000000004000000000000000000000000001B
:1001E000000000000000000000000000000000000F
:1001F00000000000000000000000000000000000FF
:1002000000000000000000000000000000000000EE
:1002100000000000000000000000000000000000DE
:10100000D10020410020007000000000D83D007099
:1010100020100070001000700000000000000000B0
:10102000000000700000400000000000FFFFFFFF14
:1010300000000000000000000000000000000000B0
:1010400000000000000000000000000000000000A0
:101050000000000000000000000000000000000090
:101060000000000000000000000000000000000080
:1020000000000220A1240070B9240070BB240070DD
:10201000BD240070BF240070C124007000000000C7
:10202000000000000000000000000000C324007059
:10203000C524007000000000C7240070C138007083
:10204000CB240070CF240070D3240070D7240070FC
:10205000DB240070DF240070E3240070E7240070AC
:10206000EB240070EF240070F3240070F72400705C
:10207000FB240070FF24007003250070072500700A
:102080000B2500709B2500709B2500709B25007020
:10209000D133007013250070172500701B250070C8
:1020A0001F25007023250070272500702B25007048
:1020B0002F25007033250070372500703B250070F8
:1020C0003F25007043250070472500704B250070A8
:1020D0004F250070532500709B2500709B250070D4
:1020E0009B2500709B2500709B2500709B25007030
:1020F0009B2500709B2500709B2500709B25007020
:102100009B2500709B2500709B2500709B2500700F
:102110009B2500709B2500709B2500709B250070FF
:10212000572500705B2500705F25007063250070E7
:10213000672500709B2500709B2500709B25007013
:102140009B2500709B2500709B2500709B250070CF
:102150009B2500709B2500709B2500709B250070BF
:102160009B2500709B2500709B2500709B250070AF
:102170009B2500709B2500709B2500709B2500709F
:102180009B2500709B2500709B2500709B2500708F
:102190009B2500709B2500709B2500709B2500707F
:1021A000713200709B2500706B2500706F250070E8
:1021B000FD3A00709B2500709B2500709B250070E8
:1021C0009B2500709B2500709B2500709B2500704F
:1021D0009B2500709B2500709B2500709B2500703F
:1021E0009B2500709B2500709B2500707325007057
:1021F000772500709B2500707B2500707F2500707F
:102200009B2500709B25007083250070872500703A
:102210009B2500709B2500709B2500709B250070FE
:102220009B2500709B2500709B2500709B250070EE
:102230009B2500709B2500709B2500709B250070DE
:102240009B2500709B2500709B2500709B250070CE
:102250009B2500709B2500709B2500709B250070BE
:102260009B2500709B2500709B2500709B250070AE
:102270009B2500709B2500709B2500709B2500709E
:102280009B2500709B2500709B2500709B2500708E
:102290009B2500709B2500709B2500709B2500707E
:1022A0008B2500708F250070932500709B25007092
:1022B000972500709B2500709B2500709B25007062
:1022C0009B2500709B2500709B2500709B2500704E
:1022D0009B2500709B2500709B2500709B2500703E
:1022E0009B2500709B2500709B2500709B2500702E
:1022F0009B2500709B2500709B2500709B2500701E
:102300009B2500709B2500709B2500709B2500700D
:102310009B2500709B2500709B2500709B250070FD
:102320009B2500709B2500709B2500709B250070ED
:102330009B2500709B2500709B2500709B250070DD
:102340009B2500709B2500709B2500709B250070CD
:102350009B2500709B2500709B2500709B250070BD
:102360009B2500709B2500709B2500709B250070AD
:102370009B2500709B2500709B2500709B2500709D
:102380009B2500709B2500709B2500709B2500708D
:102390009B2500709B2500709B2500709B2500707D
:1023A0009B2500709B2500709B2500709B2500706D
:1023B0009B2500709B2500709B2500709B2500705D
:1023C0009B2500709B2500709B2500709B2500704D
:1023D0009B2500709B2500709B2500709B2500703D
:1023E0009B2500709B2500709B2500709B2500702D
:1023F0009B2500709B2500709B250070FFFFFFFF51
:1024000000F002F800F03CF80AA090E8000C8244CA
:102410008344AAF10107DA4501D100F031F8AFF2A7
:10242000090EBAE80F0013F0010F18BFFB1A43F0B2
:1024300001031847BC190000DC190000103A24BF42
:1024400078C878C1FAD8520724BF30C830C144BF19
:1024500004680C607047000000230024002500265B
:10246000103A28BF78C1FBD8520728BF30C148BFF7
:102470000B6070471FB501F053FC1FBD10B510BDB8
:10248000DFF80CD0FFF7F6FF01F022FC00F0C0F9F6
:102490000000022003B4FFF7F1FF03BC01F00CFCC5
:1024A00072B63F483F4901600A6882F308883E4897
:1024B000804762B63D480047FEE7FEE7FEE7FEE7DD
:1024C000FEE7FEE7FEE7FEE7FEE73948004739484A
:1024D00000473948004739480047394800473948DC
:1024E00000473948004739480047394800473948CC
:1024F00000473948004739480047394800473948BC
:1025000000473948004739480047394800473948AB
:10251000004739480047394800473948004739489B
:10252000004739480047394800473948004739488B
:10253000004739480047394800473948004739487B
:10254000004739480047394800473948004739486B
:10255000004739480047394800473948004739485B
:10256000004739480047394800473948004739484B
:10257000004739480047394800473948004739483B
:10258000004739480047394800473948004739482B
:10259000004739480047394800473948004700009C
:1025A00008ED00E000200070F13900700124007097
:1025B0009B2500709B2500709B2500709B2500705B
:1025C0009B2500709B2500709B2500709B2500704B
:1025D0009B2500709B2500709B2500709B2500703B
:1025E0009B2500709B2500709B2500709B2500702B
:1025F0009B250070B93300702D3400704534007095
:102600005D340070753400708D340070A534007036
:10261000BD3400709B2500709B2500709B250070C9
:102620009B2500709B2500709B2500709B250070EA
:102630009B2500709B2500709B2500709B250070DA
:102640009B2500709B2500709B2500709B250070CA
:102650009B2500709B2500709B2500709B250070BA
:102660009B2500709B2500709B2500709B250070AA
:102670009B2500709B2500709B2500709B2500709A
:102680009B25007053EA020C00F069802DE9F04BA5
:102690004FF00006002B1FBFB3FA83F503FA05F4D1
:1026A00024FA05F65E4012BF1643B2FA82F502FA2A
:1026B00005F4C5F120051EBF22FA05FC44EA0C040E
:1026C000203556EA044C4FEA144418BF641C4FF0FE
:1026D00000084FF00009904271EB030C39D3002938
:1026E00019BFB1FA81F701FA07F6B0FA80F700FADC
:1026F00007F6C7F120071EBF20FA07FC46EA0C06C2
:102700002037B6FBF4FCA7EB0507103F07F01F0BC3
:10271000CBF120060CFA0BFB2CFA06F644BFB346AD
:102720000026202FA4BF5E464FF0000B5BEA060C8C
:1027300008BF4FF0010B19EB0B09ABFB027C48EB18
:102740000608C01B06FB02CC0BFB03CC71EB0C0193
:10275000C1E70B46024641464846BDE8F08B13B53B
:102760004FF000004FF00001AFF30080BDE81C40C7
:10277000704700000FB4044910B503AA029800F096
:1027800005F810BC5DF814FB08000020074B70B57D
:102790000D467B4400F011F80446284600F020F86E
:1027A00010B14FF0FF3070BD204670BD27150000FE
:1027B00001694A1C02610878704700B58FB0CDE905
:1027C00001310021059105497944CDE903101146F5
:1027D000684600F009F80FB000BD0000E5FFFFFFFC
:1027E000007B00F0800070472DE9F0410646002490
:1027F000D6E90170F5688046304603E04146B847A7
:10280000641C3046A8470028F8D12046BDE8F08176
:1028100010B50446AFF300802046BDE81040FFF736
:1028200039BE00002DE9F0414FF40040FE49086038
:10283000FE4CD4F8C00240F48030C4F8C002D4F892
:10284000C00220F40030C4F8C002FA49F848086019
:10285000002000F017FC00F02DFC012000F0B4FC7B
:10286000F54D286820F0FF0040F07F002860F34E0F
:102870000121304600F07CFCF14F0121384600F088
:1028800077FCF048C16821F01F0141F01301C160DD
:1028900001680029FCDAEC4800F0D6FBEA48083071
:1028A00000F028FC1B21002000F00EFC102101206C
:1028B00000F00AFC1821022000F006FC1021032081
:1028C00000F002FC00F078FAE0490122204600F016
:1028D0006FFCD4F8700120F40040C4F87001D4F803
:1028E000700120F40000C4F87001206F40F4005023
:1028F00044F8700F00F076FA206B40F480302063CB
:10290000D4F8000120F04040C4F80001206B40F4EE
:1029100000502063703C00F057FACD490122204658
:1029200000F046FCD4F8E00020F00300401CC4F89E
:10293000E000D4F8E00040F40050C4F8E000D4F81F
:10294000E00020F00C00C4F8E000D4F8E00040F40F
:102950008010C4F8E000D4F8E00040F40010C4F89F
:10296000E00000F039FABB490122204600F020FCCB
:10297000206A40F400502062B748002100F0D8FBE4
:102980004FF4887000F036FA4FF4847000F032FA99
:1029900040F2162000F02EFA4FF4067000F02AFAEA
:1029A000AE48032100F0C4FBAD48012100F0C0FB9C
:1029B000AC48032100F0DCFB0021384600F0D8FBD6
:1029C000A948002100F0B4FB0021304600F0D0FB04
:1029D0004FF48A7000F00EFA4FF48B7000F00AFA90
:1029E000182000F007FA1A2000F004FA4FF486705D
:1029F00000F000FA9D48012100F09AFB9C4800215C
:102A000000F0B6FB40F2026000F0F4F999480121B1
:102A100000F08EFB9848002100F0AAFB40F2046011
:102A200000F0E8F99548012100F082FB944800216C
:102A300000F09EFB4FF4417000F0DCF907214FF2EB
:102A4000140000F075FB8A480021F83000F090FB7C
:102A500087480021083800F08BFB40F20A6000F044
:102A6000C9F98848002100F063FB8748032100F082
:102A70007FFB40F2022000F0BDF97E4801211830B2
:102A800000F056FB8148002100F072FB4FF480708B
:102A900000F0B0F94FF4817000F0ACF94FF482709F
:102AA00000F0A8F94FF4837000F0A4F96E480421F7
:102AB000FC3800F03DFB7648022100F059FB16205F
:102AC00000F098F97348022100F032FB72480221AD
:102AD00000F04EFB40F2125000F08CF96F480321D9
:102AE00000F026FB614801210C3000F021FB674813
:102AF0000021E03000F03CFB40F2145000F07AF985
:102B000066480321001D00F013FB584801211030D6
:102B100000F00EFB49480021001D00F029FB40F2A7
:102B2000165000F067F957480321F43800F000FB15
:102B30005B48012100F0FCFA57480021001D00F01D
:102B400017FB40F2062000F055F94FF4027000F038
:102B500051F940F20A2000F04DF95248002100F0EE
:102B6000E7FA5148002100F003FB0E2000F042F983
:102B7000122000F03FF940F2067000F03BF91020FF
:102B800000F038F9142000F035F94FF4E16000F05E
:102B900031F94648012100F0CBFA304802210C30CF
:102BA00000F0E6FA4FF4A36000F024F91C2000F0D6
:102BB00021F90C2000F01EF94FF48C7000F01AF986
:102BC00040F2023000F016F940F2063000F012F93F
:102BD00040F21A5000F00EF940F20E6000F00AF9CF
:102BE00022480021083000F0A3FA214800210830D3
:102BF00000F0BEFA40F20A3000F0FCF82C48012147
:102C000000F096FA1F480321001F00F091FA1B48BC
:102C10000521EC3800F0ACFA40F20E5000F0EAF872
:102C20002448012148E000001400002000800D40ED
:102C300000366E011000002000C00F40186C0080AC
:102C40001439001400000840343D00700D0070007D
:102C50000D00E0000D00200014EA0004146800805C
:102C600010E000401872008014FB00801CE0078018
:102C70001C26008024EB00801C30008024F00080A3
:102C80001C3100801CF700801C7D00803C690080A6
:102C90001864008024790080186E008028E6008087
:102CA00028F0078038F307803832008020E2078060
:102CB00038EC008030F9008000F03AFA2B48072108
:102CC00000F036FA2A48032100F052FA40F202508E
:102CD00000F090F82748012100F02AFA2648072141
:102CE00000F026FA2548032100F042FA4FF4407024
:102CF00000F080F820480121083800F019FA204837
:102D0000072100F015FA1F48032100F031FA1E4890
:102D1000002100F02DFAD4F8600120F01F00C4F863
:102D20006001286E20F070002866286E20F00F00E9
:102D3000401C2866286E20F460002866286E13491F
:102D400020F4F81040F490102866286E20F480706B
:102D50002866286E20F080002866286E20F080709B
:102D600028660B480160BDE8F081000030F6008065
:102D70003074008030EC008030E9008030670080E3
:102D800028F90080207300800C2000800046C323B7
:102D90001C00002030B50324064D030A00F01F027A
:102DA00005EB8300036894409140A3430B43036009
:102DB00030BD000068C00F4002494FF480500867E2
:102DC0007047000000800D4002494FF48050C1F868
:102DD000E000704700800D40014900200862704704
:102DE00000800D4002494FF48050C1F8A0007047A8
:102DF00000800D4010B5074C030A00F01F0204EBE1
:102E0000830000210324036891409440A3430B43B3
:102E1000036010BD68C00F4010B5054CC3B2C0F3CD
:102E20004C32C0F3042118598A401040C84010BDEC
:102E300000C00F400448D0F87002C00601D5034816
:102E4000704703480068704700800D4000366E01EF
:102E5000100000207FB5774A0546774CC5F30B4636
:102E60000FCA8DE80F00A159012005F01F02904004
:102E7000014230D0A05910F4404F08D00020014644
:102E8000A059C0F3004028B1084604B070BDFFF758
:102E9000D1FFF4E769484FF400222B1A854249D04C
:102EA0000CDC0D2D19D00D3DB5F580153BD0B5F5D9
:102EB000801F6FD0B5F5001F0DD113E0B3F5401F93
:102EC0006ED0B3F5E00F68467DD0DB1FB3F5E003AD
:102ED0007AD0012B79D00020D7E7206800F07F005E
:102EE00048435BE000EE101A206DB8EE401B226EE6
:102EF000236B00EE100AD807B8EE402B00EE102A24
:102F000022EE011BB8EE402B81EE020B02D0162000
:102F1000414302E001EB81008100BCEEC00B10EEEA
:102F2000100A0844B1E7206980E0162000E0142070
:102F30004843AAE7256FD4F88000D4F8903000EE1B
:102F4000101A00EE900AB8EE401BB8EE603B00EE9F
:102F5000103A236F23EE011BB8EE402B05F07F00E3
:102F600013F4C01581EE020BBCEEC00B10EE103A4C
:102F700001FB003010D0954200D14008304AD4F80F
:102F800070111140B1F5004F08D05242D142A3D187
:102F900080087AE749E003E08008EFE7400874E73B
:102FA000D4F8A050D4F8B000D4F8C03000EE101A15
:102FB00000EE900AB8EE401B00EE103AB8EE602B1F
:102FC000B8EE403B02E022E026E02CE022EE011BBE
:102FD000D4F8A03005F07F0013F4C01581EE030B88
:102FE000BCEEC00B10EE103A01FB00300DD0954244
:102FF00000D14008D4F8701101F04041B1F1404FC8
:10300000C6D0B1F1804F8DD1C8E78008F2E7D4F87F
:10301000E01001F0030103E0D4F8E010C1F38101F6
:1030200050F8210031E707482FE7206A80077FF535
:103030007EAF7AE74C3D007000800D400D007000BF
:103040000080800040787D010D4903790A6863F3B0
:103050008F3242F480320A600A6841F27F030078BE
:103060009A4300F07F00024342F400500860086871
:103070000028FCDA086820F48030086070470000FF
:1030800000800D400A484FF08041C0F8581100BF41
:10309000D0F87012C903FBD54FF48031C0F8541139
:1030A000D0F850211204FBD5C0F858117047000029
:1030B00000800D400348D0F8701241F00101C0F8C3
:1030C0007012704700800D40094A30B5BF25C3001B
:1030D000D2F8000101F03F019D4099408024A843AF
:1030E0009C4001430443C2F80041C2F8001130BDC6
:1030F00000800D400D49037B0A6B63F38F3242F46D
:1031000080320A630A6B41F2010300789A4300F0AF
:103110000100024342F400500863086B0028FCDA07
:10312000086B20F4803008637047000000800D4079
:1031300070B50E4A01EA5036810EC4B2C0F34C3568
:10314000C0F30423A0189D400468C6F30C06202990
:1031500006FA03F624EA050444EA0604046004D0EF
:1031600001208840916C0142FCD170BD00C00F402D
:1031700070B50E4A01EA5036810EC4B2C0F34C3528
:10318000C0F30423A0189D400468C6F30C06202950
:1031900006FA03F624EA050444EA0604046004D0AF
:1031A00001208840916C0142FCD170BD00C00F40ED
:1031B000002AC1F30B414FF48032084401D0426031
:1031C0007047826070470000054900284FF01000EA
:1031D00002D0C1F878027047C1F87402704700004D
:1031E00000800D400B494FF47A700968B1FBF0F094
:1031F000401EB0F1807F0BD24FF0E0214861F020FB
:10320000054A82F8140D0020072288610A61704780
:10321000FEE700001C0000200FE000E01049052040
:1032200038B508604FF280000D4918310860002160
:103230000C486A460C4C00680090204600F032F8BA
:10324000606940F00100606100220321582000F015
:10325000F1FA06494FF08070C1F8000138BD000056
:1032600000800A40303D007000000C4008E000E0A3
:1032700010B50A4CA069C00708D0206810F0010FF3
:10328000074808D00122092100F07DF80120A06143
:10329000BFF34F8F10BD0022F5E7000000000C4087
:1032A00000801B40F0B50E46194915460446002023
:1032B00051F82030A34202D0401C0A28F8D3144908
:1032C000144F283131F91000032100F01F02030AC6
:1032D00007EB8300036891408B430B4303606069F5
:1032E0000127B740B8436061287870B16A783146E9
:1032F000204600F048F8606838436060AA782046AD
:103300003146BDE8F04000F007B86068B843F4E724
:103310005C3D007068C00F40F0B5C36901251029FD
:1033200005FA01F623EA0603C36102D200F10C0399
:1033300002E0103900F110030324062A18D2DFE856
:1033400002F01703080F181E186849008C40A043AC
:1033500013E01A68480084408540A2432A4306E0EF
:103360001A684800022184408140A2430A431A603F
:10337000F0BD186849008C4020431860F0BDC16959
:103380003143C161F0BD012303FA01F3016812B1B9
:103390001943016070479943FBE730B5102501F0F0
:1033A0000F01049C05EA041441EA04010160002AAB
:1033B00000D0136030BD0000044A02481268416822
:1033C000014810470C010020004018401800002060
:1033D000134A30B5506980021AD51248D269018863
:1033E000D2B20B0414D44C044FF0000304D50A2AC3
:1033F0000DD141F4004110E00D2A0CD00A4DC1F36B
:103400000D04491C89B2C7292A55018000D90380BF
:10341000BFF34F8F30BD41F480410180F8E70000D9
:10342000004018400400002034000020044A0248F4
:1034300012688168014810470C0100200080184084
:1034400018000020044A02481268C1680148104769
:103450000C01002000C0184018000020044A024857
:1034600012680169014810470C0100200000194052
:1034700018000020044A02481268416901481047B8
:103480000C0100200040194018000020044A0248A6
:1034900012688169014810470C0100200080194022
:1034A00018000020044A02481268C1690148104708
:1034B0000C01002000C0194018000020044A0248F6
:1034C0001268016A014810470C01002000001A40F0
:1034D0001800002010B502694FF44044A31104EA1B
:1034E000012403EA01232243026121F0FF01826AE1
:1034F00022F440321A43826282690A43826110BD1B
:103500004FF4E13202600021017141718171C1719A
:10351000017241728172C172417301738173C1730F
:103520000174417470470000054A01465FF00000D5
:1035300052F820308B4202D0401C0928F8D3704743
:10354000903D00702DE9F05F00270D4609685FF09F
:1035500004060446BA460B4603FB06F0B2FBF0F045
:103560000004000C00D1012000F10109CB4606FB4C
:1035700000FC09FB06F9B2FBFCFCB2FBF9F8ACEB72
:10358000030CA3EB0808E04505D2B2FBF9FC1FFAD7
:103590008BF0A3EB0C0C8C4502D861463746824673
:1035A000761C202ED8D96420B3FBF0F000EB40004D
:1035B000884203D240F22150BDE8F09F2046FFF739
:1035C000B3FF454931F910000321FFF7E3FBA06881
:1035D00040F00200A060A06820F00200A060206916
:1035E000391F042901D240F400304FF0040C7F1E33
:1035F0004FF0F85220F0F85302EA076040F21772D9
:103600001843CAF30C016FF30C00014321614FF41E
:10361000E066206920F000502061A169EB7BAF7B60
:103620009143287906EA032295F805800CEA87037E
:1036300001431A43B8F1010F42EA010245D008B133
:1036400042F01002A26121694FF40057EE79102375
:103650002248202221F4005107EA46360E43266113
:103660006E7A297A41EA0641E162A16A41F0880155
:10367000A162A16A41F44041A162666A697B2F7B25
:1036800003EA011102EA4712114331436162A97A48
:1036900019B1616A41F008016162E97A19B1616AA0
:1036A00041F001016162A97901B10D4861690143ED
:1036B0006161A069297C09B140F40020697C09B1ED
:1036C00040F48020A061002076E710B122F400626F
:1036D000B8E742F40062B5E7C63D007000C01FC005
:1036E00000C01FE00F4870B5062400680E4D00F0C2
:1036F0004000800906D00D48D0F87002C00607D5FA
:103700000B4C07E00B48FFF7A5FBB0FBF4F401E01E
:10371000094804682846FFF77FFB401CB4FBF0F023
:1037200070BD000024C00F4024E0078000800D40E1
:1037300000366E010D001000100000200B4838B557
:103740000B49006800900520086041F2B00009496B
:1037500008600921084C6A462046FFF7A3FD0122B4
:1037600020460921FFF70FFE38BD00002C3D0070F8
:10377000E0801F40D0821F4000801B402DE9FC41AB
:103780008046FFF74FF800F0A5F82548016841F0A2
:10379000407101602248583801680125002421F059
:1037A00040010160016821F03F0101601D4E0221CE
:1037B0001D482346CDE900642246FFF7EEFD1A4876
:1037C000371D002302211A46001DCDE90074FFF7C2
:1037D000E4FD41F2B00030603860FFF783FF064639
:1037E0001248FFF78DFE11493246C1F800804C7136
:1037F000CC710C710E4C4D7420460D74FFF7A2FE77
:1038000069052046FFF766FE00220521142000F01E
:1038100011F84FF0E0212805C1F80001BDE8FC8156
:103820007CC00F40DC821F40EC801F402000002045
:1038300000401840144B70B51B68C3F30223C3F15A
:103840000705042D00D904251C1D072C01D20023D7
:1038500000E0DB1E012606FA05F49E40641E0C40C3
:10386000761E9C401640344300284FEA041104DBC6
:1038700000F1E02080F8001470BD00F00F0000F1AE
:10388000E02080F8141D70BD0CED00E0064900F04A
:10389000070210B54FF6FF040868044B204040EAC9
:1038A00002201843086010BD0CED00E00000FA058E
:1038B0000249086008680028FCD170470000002019
:1038C00003480168002902D00168491E0160704761
:1038D000000000202DE9F041414D4248424C696909
:1038E000890124D5A96911F4405106D0B1F5805F52
:1038F00014D0B1F5005F07D117E02169C90305D5E0
:10390000216911F4404F09D0002007E020698007A9
:1039100001D5162000E01420324948436969C1F3FB
:10392000C261491CB0FBF1F03AE0206BECE7216882
:10393000C90307D5216811F4404F01D0002707E0E3
:10394000074605E0274A216801F07F0151434F08EF
:10395000216BC903216B06D511F4404F01D000261D
:1039600008E0064606E0C90701D0162600E0142646
:103970001C494E43226E216D0023A1FB0001FEF77E
:1039800081FEA969801911F4402109D0B1F5802F79
:1039900010D0B1F5002F12D0B1F5402F19D0002072
:1039A0006969C1F38221491CB0FBF1F00F4908603D
:1039B000BDE8F081D4F80011C1F3054103E0D4F86B
:1039C000001101F03F01B0FBF1F000EBC00040003E
:1039D000E6E7286900F00700401CB7FBF0F0DFE7DE
:1039E00000C00F4000366E0100800D401C0000201A
:1039F0003B4A2DE9F0413B4913683B4843F47003CF
:103A000013600A8922F001020A81028922F0010270
:103A100002810A88520703D50A8822F004020A802C
:103A20000188490703D5018821F0040101802F484E
:103A30004FF6FF722E494160826002684FF0E0212C
:103A400022F0800242F0200202600869C00703D021
:103A5000086920F001000861214A743A00201168C9
:103A6000890311D4BFF34F8FBFF36F8F21490860D3
:103A7000BFF34F8FBFF36F8F116841F400311160B6
:103A8000BFF34F8FBFF36F8F1168C90323D414495D
:103A9000091F0860BFF34F8F081F43F6FF740068CB
:103AA000144D1035C0F34E31C0F3C90304EA41167A
:103AB000184600BF46EA80772F60401EFAD2491EA2
:103AC000F4D2BFF34F8F106840F480301060BFF322
:103AD0004F8FBFF36F8F00F00FF8BDE8F08100004B
:103AE00088ED00E000800B4000000D4000C00B405E
:103AF00020C528D950EF00E07047000010B50E4CEB
:103B0000204600F063F840040CD5204600F0CEF8C3
:103B10000A490B480A78012A0CD001220A700921AF
:103B2000FFF731FC4FF48041204600F037F8BFF337
:103B30004F8F10BD0022F1E700800B400C000020E9
:103B400000801B4070B5054610480C46016841F4E2
:103B5000403101600E4800F028F80D4A0023012092
:103B60001146D37093705370D5801481107110700A
:103B7000084800F041F8002204215C20FFF75AFEBB
:103B800005494FF08050C1F8000170BD74C00F406E
:103B9000FC00002000800B4008E000E0490403D551
:103BA000C18841F48041C180704710B50122027084
:103BB000002141708170FF23C17004240171817262
:103BC000C17202734273C380048110BD30B5028894
:103BD00085888188848802F00402C38805F010007B
:103BE000104301F00201014304F001020A4303F40F
:103BF0008040104330BD0000F0B50C784A78CE7894
:103C0000A5008F7AD2018B78C5F380058C79C2F339
:103C1000C0124FEA850C7500BE0103F001034CEAA7
:103C2000C212C5F340051A430B7BC6F3801624026B
:103C300042EA45054A7B45EA86155E01C4F307243E
:103C4000120145EA0423C6F34014C2F3001243EA0A
:103C5000441343EA0214134B5FF0000253F822604E
:103C6000864202D0521C032AF8D30E4B0E4F083B5B
:103C700033F91220032302F01F06150A07EB850211
:103C80001568B3409D431D4315600B790A7AC3F351
:103C9000100342EAC332C280C97A01F001010181F6
:103CA0000480F0BDE43D007068C00F4045F25552FD
:103CB00042805100418070477047000003494A69C3
:103CC0001202FCD5C2B2CA61704700000040184021
:103CD000FEF7A8FD0320FFF7D9FDFFF783FA4FF4A5
:103CE000E130FFF74BFDFFF729FDFFF797FA0221BF
:103CF0000320FFF727FF4FF4FA6403A0FEF73AFD15
:103D00002046FFF7D5FDF8E7496E74206578616DB0
:103D1000706C6520647269766572210D0A0000007E
:103D20004FF04070E1EE100A704700000100000003
:103D30000001050064000000000000000100000018
:103D400000000000010000000000000040787D013C
:103D500080F0FA0200E1F505405973070000000009
:103D600000801B4000C01B4000001C4000401C4065
:103D700000000C4000000042004000420080004271
:103D800000C00042FFFF1A011E001A020C031E01B0
:103D900000000000004018400080184000C018409B
:103DA00000001940004019400080194000C019402F
:103DB00000001A4080FF14001500160017001800BC
:103DC00019001A001B00FFFF18051C000C00180149
:103DD000020306031A050E0600000000FFFF100391
:103DE0000A0500000000000000800B4000000D40AC
:103DF000103E007000000020200000003C240070F5
:103E0000303E007020000020100100005824007097
:103E100000000000000000000000000001000000A1
:103E200000000000000000000000000000A4781F57
:040000057000240162
:00000001FF
