:020000040000FA
:1014000000000220A1180000B9180000BB1800005D
:10141000BD180000BF180000C11800000000000047
:10142000000000000000000000000000C3180000E1
:10143000C518000000000000C7180000493C00006B
:10144000CB180000CF180000D3180000D7180000F8
:10145000DB180000DF180000E3180000E7180000A8
:10146000EB180000EF180000F3180000F718000058
:10147000FB180000FF180000031900000719000006
:101480000B1900009B1900009B1900009B1900001C
:10149000A930000013190000171900001B190000E3
:1014A0001F19000023190000271900002B19000044
:1014B0002F19000033190000371900003B190000F4
:1014C0003F19000043190000471900004B190000A4
:1014D0004F190000531900009B1900009B190000D0
:1014E0009B1900009B1900009B1900009B1900002C
:1014F0009B1900009B1900009B1900009B1900001C
:101500009B1900009B1900009B1900009B1900000B
:101510009B1900009B1900009B1900009B190000FB
:10152000571900005B1900005F19000063190000E3
:10153000671900009B1900009B1900009B1900000F
:101540009B1900009B1900009B1900009B190000CB
:101550009B1900009B1900009B1900009B190000BB
:101560009B1900009B1900009B1900009B190000AB
:101570009B1900009B1900009B1900009B1900009B
:101580009B1900009B1900009B1900009B1900008B
:101590009B1900009B1900009B1900009B1900007B
:1015A000AD2D00009B1900006B1900006F190000A1
:1015B000DD3E0000053B00009B1900009B19000068
:1015C0009B1900009B1900009B1900009B1900004B
:1015D000153000009B1900009B1900009B190000AA
:1015E0009B1900009B1900009B1900007319000053
:1015F000771900009B1900007B1900007F1900007B
:101600009B1900009B190000831900008719000036
:101610009B1900009B1900009B1900009B190000FA
:101620009B1900009B190000453900009B19000020
:101630009B1900009B1900009B1900009B190000DA
:101640009B1900009B1900009B1900009B190000CA
:101650009B1900009B1900009B1900009B190000BA
:101660009B1900009B1900009B1900009B190000AA
:101670009B1900009B1900009B1900009B1900009A
:101680009B1900009B1900009B1900009B1900008A
:101690009B1900009B1900009B1900009B1900007A
:1016A0008B1900008F190000931900009B1900008E
:1016B000971900009B1900009B1900009B1900005E
:1016C0009B1900009B1900009B1900009B1900004A
:1016D0009B1900009B1900009B1900009B1900003A
:1016E0009B1900009B1900009B1900009B1900002A
:1016F0009B1900009B1900009B1900009B1900001A
:101700009B1900009B1900009B1900009B19000009
:101710009B1900009B1900009B1900009B190000F9
:101720009B1900009B1900009B1900009B190000E9
:101730009B1900009B1900009B1900009B190000D9
:101740009B1900009B1900009B1900009B190000C9
:101750009B1900009B1900009B1900009B190000B9
:101760009B1900009B1900009B1900009B190000A9
:101770009B1900009B1900009B1900009B19000099
:101780009B1900009B1900009B1900009B19000089
:101790009B1900009B1900009B1900009B19000079
:1017A0009B1900009B1900009B1900009B19000069
:1017B0009B1900009B1900009B1900009B19000059
:1017C0009B1900009B1900009B1900009B19000049
:1017D0009B1900009B1900009B1900009B19000039
:1017E0009B1900009B1900009B1900009B19000029
:1017F0009B1900009B1900009B190000FFFFFFFFD1
:1018000000F002F800F03CF80AA090E8000C8244D6
:101810008344AAF10107DA4501D100F031F8AFF2B3
:10182000090EBAE80F0013F0010F18BFFB1A43F0BE
:10183000010318477C2C00009C2C0000103A24BFA8
:1018400078C878C1FAD8520724BF30C830C144BF25
:1018500004680C6070470000002300240025002667
:10186000103A28BF78C1FBD8520728BF30C148BF03
:101870000B6070471FB502F0BFFC1FBD10B510BD57
:10188000DFF80CD0FFF7F6FF02F088FC00F024FA36
:101890000000022003B4FFF7F1FF03BC02F06EFC6E
:1018A00072B63F483F4901600A6882F308883E48A3
:1018B000804762B63D480047FEE7FEE7FEE7FEE7E9
:1018C000FEE7FEE7FEE7FEE7FEE739480047394856
:1018D00000473948004739480047394800473948E8
:1018E00000473948004739480047394800473948D8
:1018F00000473948004739480047394800473948C8
:1019000000473948004739480047394800473948B7
:1019100000473948004739480047394800473948A7
:101920000047394800473948004739480047394897
:101930000047394800473948004739480047394887
:101940000047394800473948004739480047394877
:101950000047394800473948004739480047394867
:101960000047394800473948004739480047394857
:101970000047394800473948004739480047394847
:101980000047394800473948004739480047394837
:1019900000473948004739480047394800470000A8
:1019A00008ED00E000140000FD3D000001180000FB
:1019B0009B1900009B1900009B1900009B19000057
:1019C0009B1900009B1900009B1900009B19000047
:1019D0009B1900009B1900009B1900009B19000037
:1019E0009B1900009B1900009B1900009B19000027
:1019F0009B1900008D3000003D310000593100007E
:101A00007531000091310000AD310000C931000096
:101A1000E53100009B1900009B1900009B19000094
:101A20009B1900009B1900009B1900009B190000E6
:101A30009B1900009B1900009B1900009B190000D6
:101A40009B1900009B1900009B1900009B190000C6
:101A50009B1900009B1900009B1900009B190000B6
:101A60009B1900009B1900009B1900009B190000A6
:101A70009B1900009B1900009B1900009B19000096
:101A80009B19000053EA020C00F069802DE9F04B2D
:101A90004FF00006002B1FBFB3FA83F503FA05F4DD
:101AA00024FA05F65E4012BF1643B2FA82F502FA36
:101AB00005F4C5F120051EBF22FA05FC44EA0C041A
:101AC000203556EA044C4FEA144418BF641C4FF00A
:101AD00000084FF00009904271EB030C39D3002944
:101AE00019BFB1FA81F701FA07F6B0FA80F700FAE8
:101AF00007F6C7F120071EBF20FA07FC46EA0C06CE
:101B00002037B6FBF4FCA7EB0507103F07F01F0BCF
:101B1000CBF120060CFA0BFB2CFA06F644BFB346B9
:101B20000026202FA4BF5E464FF0000B5BEA060C98
:101B300008BF4FF0010B19EB0B09ABFB027C48EB24
:101B40000608C01B06FB02CC0BFB03CC71EB0C019F
:101B5000C1E70B46024641464846BDE8F08B13B547
:101B60004FF000004FF00001AFF30080BDE81C40D3
:101B7000704700000FB4044910B503AA029800F0A2
:101B800045F810BC5DF814FB040000200EB50546B6
:101B900014460E4613A000F056F8284600F053F8FD
:101BA00016A000F050F8304600F04DF815A000F0F7
:101BB0004AF800218DF80B100A210DF10A008DF86A
:101BC0000A1008E094FBF1F201FB124294FBF1F4DD
:101BD000303200F8012D002CF4DC00F034F800F075
:101BE00027F800002A2A2A20617373657274696FCE
:101BF0006E206661696C65643A2000002C2066697D
:101C00006C6520002C206C696E652000074B70B558
:101C10000D467B4400F02DF80446284600F03CF8C1
:101C200010B14FF0FF3070BD204670BD6B25000035
:101C300010B5002000F034F8FFF720FEBDE810409A
:101C4000012002F09BBA10B5044602E0641C00F0CB
:101C500004F820780028F9D110BD08B569468DF840
:101C600000000320ABBE08BD01694A1C0261087870
:101C7000704700B58FB0CDE90131002105910549CC
:101C80007944CDE903101146684600F011F80FB011
:101C900000BD0000E5FFFFFF007B00F08000704703
:101CA00010B500F027F8BDE8104000F01EB87047EE
:101CB0002DE9F04106460024D6E90170F56880461A
:101CC000304603E04146B847641C3046A847002828
:101CD000F8D12046BDE8F08110B50446AFF300808E
:101CE0002046BDE81040FFF7D5BD002801D002F026
:101CF00045BA704710B5002102A000F013F801208A
:101D000010BD0000534947414252543A2041626E8F
:101D10006F726D616C207465726D696E6174696F4C
:101D20006E00000070B505460C460A2000E06D1CF0
:101D3000FFF793FF35B128780028F8D102E0641C42
:101D4000FFF78BFF14B120780028F8D1BDE8704070
:101D50000A20FFF782BF000010B54FF40040FE4993
:101D6000086000BFFD48006840F48030FC49C1F8BD
:101D7000C0020846D0F8C00220F40030C1F8C0020A
:101D8000F848F949086000BF002000F05FFD00F04E
:101D900091FD012000F05AFFF448006820F0FF0098
:101DA00040F07F00F14908600121F14800F0EEFEAB
:101DB0000121F04800F0EAFEEF48C06820F01F0063
:101DC00040F01300EC49C86000BFEB48006800F029
:101DD0000040B0F1004FF8D1E84800F00BFDE848B2
:101DE00000F092FD1B21002000F070FD1021012069
:101DF00000F06CFD1821022000F068FD1021032086
:101E000000F064FDDF4800F0C7FD2121002000F054
:101E1000A7FD1021012000F0A3FD1121022000F0F8
:101E20009FFD1321032000F09BFDCD48006920F0A9
:101E30004000CB49086100F0EDFA0122D249C848C0
:101E400000F0F4FED148006820F40040C449C1F815
:101E500070010846D0F8700120F40000C1F870014C
:101E60000846006F40F40050086700F0E9FABC48EB
:101E7000D0F8A00040F48030B949C1F8A00008466D
:101E8000D0F8700120F04040C1F870010846D0F849
:101E9000A00040F40050B249A031086000F0C2FA3E
:101EA0000122BB49AE4800F0C1FEB8489038006836
:101EB00020F00300401CAA49C1F8E0000846D0F811
:101EC000E00040F40050C1F8E0000846D0F8E0001F
:101ED00020F00C00C1F8E0000846D0F8E00040F423
:101EE0008010C1F8E0000846D0F8E00040F400108F
:101EF000A6499039086000F09DFA0122A54998484A
:101F000000F094FE9648006A40F40050944908623C
:101F10000021A14800F0A4FD4FF4887000F098FA69
:101F20004FF4847000F094FA40F2162000F090FA1A
:101F30004FF4067000F08CFA0321984800F090FDF1
:101F40000121974800F08CFD0321964800F01EFE09
:101F50000021884800F01AFE0021934800F080FD1F
:101F60000021834800F012FE4FF48A7000F070FAEE
:101F70004FF48B7000F06CFA182000F069FA1A2008
:101F800000F066FA4FF4867000F062FA012187488B
:101F900000F066FD0021864800F0F8FD40F2026086
:101FA00000F056FA0121834800F05AFD00218248D2
:101FB00000F0ECFD40F2046000F04AFA01217F4895
:101FC00000F04EFD00217E4800F0E0FD4FF441702E
:101FD00000F03EFA07214FF2140000F041FD00210D
:101FE0007348F83000F0D2FD00217148083800F045
:101FF000CDFD40F20A6000F02BFA0021714800F09C
:102000002FFD0321704800F0C1FD40F2027000F086
:102010001FFA00216D4800F023FD01215F48001DDB
:1020200000F0B4FD40F2022000F012FA01216148F4
:10203000183000F015FD0021654800F0A7FD4FF4B1
:10204000807000F005FA4FF4817000F001FA4FF44F
:10205000827000F0FDF94FF4837000F0F9F904216B
:102060005148FC3800F0FCFC02215A4800F08EFD7B
:10207000162000F0EDF90221574800F0F1FC022192
:10208000564800F083FD40F2125000F0E1F90321C0
:10209000534800F0E5FC012144480C3000F0E0FC1E
:1020A00000214B48E03000F071FD40F2145000F088
:1020B000CFF903214A48001D00F0D2FC01213B4822
:1020C000103000F0CDFC00212948001D00F05EFD1D
:1020D00040F2165000F0BCF903213A48F43800F001
:1020E000BFFC01213F4800F0BBFC00213B48001D24
:1020F00000F04CFD40F2062000F0AAF94FF4027007
:1021000000F0A6F940F20A2000F0A2F900213648BA
:1021100000F0A6FC0021354800F038FD0E2000F04C
:1021200097F9122000F094F940F2067000F090F94F
:10213000102000F08DF9142000F08AF94FF4E160CE
:1021400000F086F901212A4800F08AFC0221134898
:102150000C3000F01BFD4DE010000020C0820D404F
:1021600000800D4000366E010C00002000C00F40C2
:10217000186C008014390014000008400C42000064
:1021800014420000244200000D00700070810D40D8
:102190000D00E0000D00200014EA00041468008027
:1021A00010E000401872008014FB00801CE00780E3
:1021B0001C26008024EB00801C30008024F000806E
:1021C0001C3100801CF700801C7D008018FD008001
:1021D0003C6900801864008024790080186E0080BB
:1021E00028E6008028F0078038F307803832008026
:1021F00020E207804FF4A36000F02AF91C2000F0D1
:1022000027F90C2000F024F94FF48C7000F020F92D
:1022100040F2023000F01CF940F2063000F018F9EC
:1022200040F21A5000F014F940F20E6000F010F97C
:102230000021414800F014FC0021404800F0A6FCB9
:1022400040F20A3000F004F901213D4800F008FC9A
:1022500003213C4800F004FC05213B4800F096FCBB
:1022600040F20E5000F0F4F80121384800F0F8FB7D
:1022700007213448E83800F0F3FB0321344800F02C
:1022800085FC40F2025000F0E3F801212C480838A8
:1022900000F0E6FB07212F4800F0E2FB03212E4867
:1022A00000F074FC4FF4407000F0D2F8012129488E
:1022B000083800F0D5FB07212448083800F0D0FB8F
:1022C0000321264800F062FC0021254800F05EFC56
:1022D0002448D0F8600120F01F002249C1F86001B5
:1022E0002148006E20F070001F4908660846006E05
:1022F00020F00F00401C08660846006E20F46000C5
:1023000008660846006E20F4F81040F49010086645
:102310000846006E20F4807008660846006E20F0C3
:10232000800008660846006E20F0807008660F483E
:102330000F49086010BD000024E0078024260080BB
:1023400038EC008018F7008038EF008030F900800A
:102350003074008030E90080306700802073008096
:102360000C20008000800D4000C00F400046C323B9
:10237000180000202DE9F04104460E46270A04F01B
:102380001F08072F00D805E040F2D332084909A002
:10239000FFF7FCFB0A4800EB87052868032101FAD8
:1023A00008F1884306FA08F108432860BDE8F08187
:1023B00070430000696E646578203C3D2037000062
:1023C00068C00F402DE9F04104460E46270A04F08C
:1023D0001F08072F00D805E040F2D332084909A0B2
:1023E000FFF7D4FB0A4800EB87052868032101FAB0
:1023F00008F1884306FA08F108432860BDE8F08137
:1024000070430000696E646578203C3D2037000011
:1024100068C00F404FF480500149086770470000C2
:1024200000800D404FF48050014908607047000063
:10243000E0800D40002001490862704700800D4097
:102440004FF480500149086070470000A0800D40A3
:102450002DE9F0470446254600274FEA152805F0E8
:102460001F09B8F1070F00D805E040F2D33209A1E7
:102470000EA0FFF78BFB104800EB880630680321A5
:1024800001FA09F1884307FA09F10843306000BFF7
:10249000BDE8F0872E5C46534C4C49425C66736C39
:1024A0005F636C6F636B2E6800000000696E64658B
:1024B00078203C3D2037000068C00F402DE9F047F0
:1024C0000446254603274FEA152805F01F09B8F1F1
:1024D000070F00D805E040F2D33209A10EA0FFF7A4
:1024E00055FB104800EB88063068032101FA09F11A
:1024F000884307FA09F10843306000BFBDE8F08760
:102500002E5C46534C4C49425C66736C5F636C6F47
:10251000636B2E6800000000696E646578203C3DA6
:102520002037000068C00F400146C8B2054A8058F5
:10253000C1F34C32C1F304239A401040C1F304228A
:10254000D040704700C00F400448006800F0100001
:1025500008B10348704703480068FBE770820D40EC
:1025600000366E010C0000202DE9F0412DED028BAC
:1025700084B00546994BD3E901021968DB6801ACC8
:102580000DC4009196492846C0F30B428A5800F0CA
:102590001F070123BB401A400AB1012200E00022BC
:1025A0002AB9002004B0BDEC028BBDE8F0818C4F4D
:1025B000A846C8F30B403858C0F3813010B9FFF774
:1025C000C3FF00E0002004468548C5F30B41415895
:1025D000C1F3004109B12046E4E78249681A8D42FF
:1025E00052D00CDC0D2D18D0A5F580100D38B8B3E5
:1025F000B0F5801F71D0B0F5001F6FD114E0B0F5B9
:10260000401F6CD0B0F5E00F6AD0A0F5E000C01F0D
:10261000002878D00128F0D1CEE07148006800F0A1
:102620007F0060434408D5E06D48006D00EE100A5D
:10263000B8EE401B00EE104AB8EE400B21EE001B36
:102640006748006E00EE100AB8EE400B81EE008B7A
:102650006348006B00F0010018B11620444303E00A
:1026600008E004EB84008400BCEEC80B10EE100AF6
:102670000444AFE05A48006900F0020008B1162097
:1026800000E014204443A5E05548006F00F07F06A9
:1026900053488030006800EE100AB8EE401B00EE90
:1026A000104AB8EE400B21EE001B4D48D0F89000C8
:1026B00000EE100AB8EE400B81EE008BBCEEC80BAA
:1026C00010EE100A04FB06044548006F00F4C01029
:1026D00038B1B0F5002F08D105E06FE078E018E0E0
:1026E0005AE0A40802E0640800E000BF00BF3E48D2
:1026F00000683E490840B0F5004F05D04942084403
:1027000020B9A40803E04FE0640800E000BF00BF68
:1027100060E03348A030006800F07F063048D0F811
:10272000B00000EE100AB8EE401B00EE104AB8EE02
:10273000400B21EE001B2C48B038006800EE100A58
:10274000B8EE400B81EE008BBCEEC80B10EE100A09
:1027500004FB06042248D0F8A00000F4C01018B111
:10276000B0F5002F04D101E0A40802E0640800E005
:1027700000BF00BF1C48006800F04040B0F1404F6F
:1027800003D0B0F1804F04D101E0A40802E0640856
:1027900000E000BF00BF1DE013489038006800F063
:1027A00003065DF8264015E00F4890380068C0F336
:1027B00081065DF826400DE00D4C0BE00848006AEC
:1027C00000F0020008B1162000E01420444301E0AC
:1027D000002400BF00BF2046E4E6000028420000BD
:1027E00000800D400D00700070810D400080800061
:1027F00040787D011449096821F4404141F4803159
:1028000002794FF4404303EA823211430E4A1160C9
:102810001146096841F27F02914341F40051027868
:1028200002F07F021143084A116000BF064909689F
:1028300001F000410029F9D00349096821F48031F1
:10284000014A11607047000000800D4010B5044639
:1028500004B904E09922104910A0FFF797F94FF04E
:1028600080401249086000BF1148006800F48030C1
:102870000028F9D04FF480300C49091F086000BFD0
:102880000A480838006800F400400028F8D04FF4E7
:1028900080300649086010BDD04200002162797086
:1028A0006173735874616C4F7363000058810D40FD
:1028B00070820D400348006840F001000249C1F8F1
:1028C0007002704770820D4000800D4070B50A465E
:1028D00001460B4C2468CE00BF25B54024EA050311
:1028E000CD008024AC401C43064DC5F8004102F0E9
:1028F0003F04CD00AC401C43014D2C6070BD000076
:1029000000810D4000800D401449096B21F44041C5
:1029100041F48031027B4FF4404303EA8232114399
:102920000E4A11631146096B41F20102914341F4D1
:102930000051027802F001021143084A116300BFFE
:102940000649096B01F000410029F9D00349096BE0
:1029500021F48031014A11637047000000800D406E
:1029600070B50A4601460B4C2468CE00BF25B54021
:1029700024EA0503CD008024AC401C43054DF03D06
:10298000C5F8F04002F03F04CD00AC401C43014DBF
:102990002C6070BDF0800D401449096921F440415C
:1029A00041F4803142784FF4404303EA82321143CC
:1029B0000E4A11611146096921F0020141F44151A9
:1029C0000278022303EA42021143084A116100BF60
:1029D0000649096901F000410029F9D00349096954
:1029E00021F48031014A11617047000000800D40E0
:1029F00070B504460E463F2000EA9465E0B21549E2
:102A00004158C4F34C30C4F30422904021EA000042
:102A1000C4F3042206FA02F1C4F34C32C4F30423D3
:102A20009A4011400843E1B20A4A8850202D00D84C
:102A300005E040F2B13208490848FFF7A7F8202D19
:102A400007D000BF0348806C0121A940084000283E
:102A5000F8D170BD00C00F40983700006C2B00000B
:102A600070B504460E463F2000EA9465E0B2154971
:102A70004158C4F34C30C4F30422904021EA0000D2
:102A8000C4F3042206FA02F1C4F34C32C4F3042363
:102A90009A4011400843E1B20A4A8850202D00D8DC
:102AA00005E040F2B13208A10DA0FFF76FF8202D2C
:102AB00007D000BF0348806C0121A94008400028CE
:102AC000F8D170BD00C00F402E5C46534C4C4942BB
:102AD0005C66736C5F636C6F636B2E680000000054
:102AE000627573795368696674203C3D2043434D99
:102AF0005F4E4F5F425553595F57414954000000A4
:102B000070B504460E463F2000EA9465E0B21549D0
:102B10004158C4F34C30C4F30422904021EA000031
:102B2000C4F3042206FA02F1C4F34C32C4F30423C2
:102B30009A4011400843E1B20A4A8850202D00D83B
:102B400005E04FF46372084908A0FFF71FF8202D35
:102B500007D000BF0348806C0121A940084000282D
:102B6000F8D170BD00C00F409837000062757379CE
:102B70005368696674203C3D2043434D5F4E4F5F70
:102B8000425553595F5741495400000070B50446FF
:102B90000E463F2000EA9465E0B215494158C4F35F
:102BA0004C30C4F30422904021EA0000C4F3042214
:102BB00006FA02F1C4F34C32C4F304239A401140E4
:102BC0000843E1B20A4A8850202D00D805E04FF4AE
:102BD000637208A10DA0FEF7D9FF202D07D000BF1A
:102BE0000348806C0121A94008400028F8D170BD3D
:102BF00000C00F402E5C46534C4C49425C66736CDF
:102C00005F636C6F636B2E68000000006275737900
:102C10005368696674203C3D2043434D5F4E4F5FCF
:102C2000425553595F5741495400000010B532B125
:102C30004FF48033C1F30B440444636005E04FF468
:102C40008033C1F30B440444A36010BD18B91021B4
:102C5000034A116003E01021014A121D1160704700
:102C600074820D4030B5164800684FF47A72B0FB9C
:102C7000F2F1481EB0F1807F01D301201BE0481E15
:102C80004FF0E022506150170F22002804DB130799
:102C90001C0E0C4B1C5406E013071D0E0A4B00F0D3
:102CA0000F04241F1D5500BF00204FF0E02290614B
:102CB00007201061002008B100BFFEE730BD000012
:102CC0001800002000E400E018ED00E0014611F1DA
:102CD000800F01D1012070470846002809DB00F071
:102CE0001F0301229A4043099B0003F1E023C3F82C
:102CF000002100BF0020EEE7014611F1800F01D155
:102D0000012070470846002809DB00F01F0301225C
:102D10009A4043099B0003F1E023C3F8002100BF60
:102D20000020EEE738B5052000210A460B461024A6
:102D300004EA031404431A4D2C6001B10A6000BF79
:102D4000174818304FF2800100B1016000BF1548EC
:102D5000006800906A460021134800F099F80120AD
:102D6000114949690143104A516100BF0022032102
:102D7000582000F057FE582010F1800F00D10EE0CF
:102D80000146002909DB01F01F0301229A404B098B
:102D90009B0003F1E023C3F8002100BF00BF38BD52
:102DA00000800A400842000000000C4010B500BF3F
:102DB00000BF1648806900BF00F00100C8B10024C0
:102DC000202C00D204E0B02211A116A0FEF7DEFEF6
:102DD0000E480068E04000F0010028B900220921F7
:102DE000134800F0F5F804E001220921104800F032
:102DF000EFF801200549886100BF00BF00BF00BF98
:102E0000BFF34F8F00BF00BF00BF10BD00000C40DC
:102E10002E5C46534C4C49425C66736C5F6770692C
:102E20006F2E680070696E203C2033320000000075
:102E300000801B4070B50546002406E0094850F8A4
:102E40002400A84200D102E0641C0A2CF6D300BF83
:102E50000A2C00D204E03A22034904A0FEF796FEB1
:102E6000204670BD3842000020430000696E737434
:102E7000616E6365203C2041525241595F53495A6B
:102E80004528735F6770696F42617365732900003D
:102E90002DE9F84F04460D4616462046FFF7CAFFB7
:102EA000224931F91070B846032000904FEA182AE1
:102EB00008F01F0BBAF1070F00D805E040F2D3323B
:102EC0001B491CA0FEF762FE1D4800EB8A09D9F8D9
:102ED0000000032101FA0BF18843009901FA0BF17C
:102EE0000843C9F8000000BF00BF60690121A94084
:102EF00088436061307828B960680121A94088431F
:102F0000606009E072782946204600F061F8606848
:102F10000121A94008436060B7783A462946204617
:102F200000F010F800BFBDE8F88F0000604200001C
:102F300070430000696E646578203C3D20370000D6
:102F400068C00F40F0B503460C462146DD690126F6
:102F5000A640B543DD61102C02D203F10C0002E063
:102F600003F110001039062A2ED2DFE802F02D03FB
:102F70000A15202705684F000326BE40B5430560AB
:102F800023E005684F000326BE40B5434F000126ED
:102F9000BE403543056018E005684F000326BE407B
:102FA000B5434F000226BE40354305600DE005687D
:102FB0004F000326BE403543056006E0DD6901266B
:102FC000A6403543DD6100E000BF00BFF0BD00005A
:102FD00070B504460D461646202D00D204E05A2254
:102FE000084909A0FEF7D2FD2EB920680121A940A9
:102FF0008843206004E021680120A840014321604B
:1030000070BD00002043000070696E203C20333208
:103010000000000010B5012009498968014011B184
:1030200008A0FEF7A7FD01200549886000BF00BF8A
:1030300000BF00BFBFF34F8F00BF00BF00BF10BD78
:1030400000C01E406B4750545F4F757470757443D9
:103050006F6D7061726531466C61672E2E2E0D0AA0
:103060000000000030B5DDE9034504B1256030BD46
:10307000F0B5DDE9055401F00F06102707EA041743
:103080003E43066002B11360F0BD000010B5034876
:1030900041680348034A1268904710BD140100209C
:1030A000004018401400002000202149496901F423
:1030B000001109B31E49C969C8B21E49098801F443
:1030C0000041C9B91B49098801F4804161B10A284E
:1030D00003D00021174A118020E01649098841F4E5
:1030E0000041144A118019E00D2806D111490988C0
:1030F00041F480410F4A118010E00E490988C1F364
:103100000D010D4A50540B490988491C094A118088
:1031100011460988C72901DD0021118000BF00BFC9
:1031200000BFBFF34F8F00BF00BF00BF704700005C
:1031300000401840080000203000002010B503486F
:1031400081680348034A1268904710BD14010020AB
:10315000008018401400002010B50348C1680348DF
:10316000034A1268904710BD1401002000C01840A7
:103170001400002010B5034801690348034A12688F
:10318000904710BD140100200000194014000020D9
:1031900010B5034841690348034A1268904710BDBF
:1031A00014010020004019401400002010B503480D
:1031B00081690348034A1268904710BD140100203A
:1031C000008019401400002010B50348C16903486D
:1031D000034A1268904710BD1401002000C0194036
:1031E0001400002010B50348016A0348034A12681E
:1031F000904710BD1401002000001A401400002068
:1032000002694FF4404303EA01231A430261826AD0
:1032100022F440324FF4407303EA01231A438262DE
:1032200021F0FF0182690A438261704710B50446AC
:1032300004B105E04FF4E4720B490CA0FEF7A6FCC4
:103240004FF4E1302060002020716071A071E071C6
:1032500020726072A072E07260732073A073E073DA
:103260002074607410BD0000C0430000636F6E6680
:103270006967000070B50546002406E0094850F86B
:103280002400A84200D102E0641C092CF6D300BF40
:10329000092C00D204E07422034904A0FEF776FC56
:1032A000204670BD6C420000C0430000696E73741C
:1032B000616E6365203C2041525241595F53495A27
:1032C0004528735F6C707561727442617365732910
:1032D000000000002DE9F04F85B004460D469146F0
:1032E00005B104E0CA22844984A0FEF74FFC286897
:1032F00000B104E0CB22804982A0FEF747FC287A87
:10330000042800DC04E0CD227B4984A0FEF73EFCCB
:10331000687A042800DC04E0CE2277498FA0FEF70B
:1033200035FC286802904FF0000A00200490042722
:1033300031E028687843B9FBF0F01FFA80F8B8F163
:10334000000F01D14FF0010807FB08F0B9FBF0F0C6
:10335000039029680398A0EB010B08F10100784362
:10336000B9FBF0F02968081A58450BD208F10100A2
:103370007843B9FBF0F02968A1EB000B08F10100DC
:103380001FFA80F80298834504D8CDF808B0BA46F1
:10339000CDF810807F1C202FCBD964212868B0FB8A
:1033A000F1F000EB40010298814204D240F221503A
:1033B00005B0BDE8F08F2046FFF75CFF019077492C
:1033C000019831F91000009003210098FEF7D2FF18
:1033D00000BF00BFA06840F00200A060A06820F01D
:1033E0000200A06000BF2669BAF1030F04D9BAF148
:1033F000080F01D246F4003626F0F856AAF1010073
:103400004FF0F85101EA006006436FF30C06049890
:10341000C0F30C0030432061206920F0005020618F
:10342000A06940F2177120EA01062879E97B4FF480
:10343000E06202EA01210843A97B042202EA810139
:10344000084306436879012807D1287910B126F48A
:10345000006606E046F4006603E0287908B146F00D
:103460001006A661206920F40056E8794FF4005157
:1034700001EA403030432061287A697A40EA01400D
:10348000E062A06A40F08800A062A06A40F4404078
:10349000A062434E46F0004646F44046687B102149
:1034A00001EA0010297B202202EA41110843616AE7
:1034B00008436062A87A18B1606A40F00800606250
:1034C000E87A18B1606A40F001006062A87910B132
:1034D00046F0005601E026F0005660693043606116
:1034E000A669287C08B146F40026687C08B146F439
:1034F0008026A66100205BE7C0430000636F6E6614
:1035000069670000636F6E6669672D3E626175646E
:10351000526174655F4270730000000046534C5F57
:10352000464541545552455F4C50554152545F46B3
:1035300049464F5F53495A456E2862617365292099
:103540003E3D20636F6E6669672D3E7478466966FE
:103550006F57617465726D61726B000046534C5F0A
:10356000464541545552455F4C50554152545F4673
:1035700049464F5F53495A456E2862617365292059
:103580003E3D20636F6E6669672D3E7278466966C0
:103590006F57617465726D61726B0000A24200002A
:1035A00000001F4070B51648C1B2164A8958C0F3D2
:1035B0004C32C0F304239A401140C0F30422D1409E
:1035C00061B91148FEF7D0FF0621B0FBF1F50F48B5
:1035D000FEF7AAFF401CB5FBF0F40FE000BF0C485B
:1035E000006800F0100008B10A4D01E00A480568C3
:1035F0000648FEF799FF401CB5FBF0F4204670BD6D
:103600002426008000C00F400D00100024E0078039
:1036100070820D4000366E010C00002038B5104855
:1036200000680090052000210A460B46102404EA99
:10363000031404430B4D2C6001B10A6000BF0A481B
:1036400041F2B00100B1016000BF6A46092107489C
:10365000FFF71EFC012209210448FFF7B9FC38BD21
:1036600004420000E0801F40D0821F4000801B40C9
:103670002DE9FC5F0746FEF76FFB00F0F1FA4FF013
:1036800000094FF4A36425464FF003084FEA152ABA
:1036900005F01F0BBAF1070F00D805E040F2D33256
:1036A0003DA143A0FEF772FA444800EB8A06306859
:1036B000032101FA0BF1884308FA0BF1084330604B
:1036C00000BF00BF00213E48FFF71AFA00213D4825
:1036D000FFF78EF900203C4903460246CDE9001071
:1036E00002213A48FFF7C4FC00203749091D034670
:1036F0000246CDE9001002213448001DFFF7B8FC56
:1037000041F2B000304900231A46CDE900100221F1
:103710002E48FFF7A7FC41F2B0002B49091D0023FA
:103720001A46CDE9001002212848001DFFF79AFC37
:10373000FFF738FF81462648FFF778FD24480760E9
:10374000002023494871C871087101204874087429
:103750004A462048FFF7BEFD4FF400111D48FFF711
:103760004FFD00220521142000F05CF9142010F117
:10377000800F00D10EE00146002909DB01F01F0394
:1037800001229A404B099B0003F1E023C3F800217A
:1037900000BF00BFBDE8FC9F2E5C46534C4C494225
:1037A0005C66736C5F636C6F636B2E680000000077
:1037B000696E646578203C3D2037000068C00F408A
:1037C0002426008024E00780DC821F40EC801F401C
:1037D0001C000020004018402DE9F84F04464FF42B
:1037E00086752E464FF003084FEA162906F01F0A89
:1037F000B9F1070F00D805E040F2D33228A12EA07E
:10380000FEF7C4F92F4800EB89073868032101FA55
:103810000AF1884308FA0AF10843386000BF00BF84
:103820006D4605B104E06B2227A12CA0FEF7AEF98E
:103830000020287000BF012000906946294800F050
:10384000B1F82848002100F5807202EB01121460E3
:1038500000BF022200F5807303EB01139B68134342
:1038600000F5807505EB0115AB6000BF0022062155
:103870007A2000F0D7F87A20FFF73EFA19480021A5
:1038800000F5807202EB0112926842F0010300F52C
:10389000807202EB0112936000BFBDE8F88F000058
:1038A0002E5C46534C4C49425C66736C5F636C6F94
:1038B000636B2E6800000000696E646578203C3DF3
:1038C0002037000068C00F402E5C46534C4C4942E4
:1038D0005C66736C5F7069742E680000636F6E665F
:1038E000696700000040084070B50546002406E006
:1038F000094850F82400A84200D102E0641C002CC2
:10390000F6D000BF04B904E03722044904A0FEF752
:103910003DF9204670BD0000B44200001044000094
:10392000696E7374616E6365203C20415252415947
:103930005F53495A4528735F7069744261736573B8
:103940002900000010B50F48002100F5807202EB3D
:103950000112D26802F0010212B10BA0FEF70AF9BF
:1039600008480021012200F5807303EB0113DA609F
:1039700000BF00BF00BF00BFBFF34F8F00BF00BF3D
:1039800000BF10BD004008405049542063686E31AC
:1039900020696E746572727570742032732E2E2ECB
:1039A0000D0A000070B504460D4605B104E03E2244
:1039B000184919A0FEF7EAF82046FFF795FF1849C5
:1039C00031F9106003213046FEF7FCFC00BF20688F
:1039D00020F00200206000200DE004F5807101EB72
:1039E0000011896821F0010204F5807101EB0011DA
:1039F0008A60411CC8B20428EFDB287820B1206817
:103A000020F00100206003E0206840F00100206009
:103A100070BD000010440000636F6E6669670000AF
:103A2000B84200002DE9F04F05460E46174600202B
:103A300000BF24490968C1F302210846294603460C
:103A4000B446B8461C46C4F1070BBBF1040F02D9BB
:103A50004FF0040B01E0C4F1070BDA4604F1040B4C
:103A6000BBF1070F02D24FF0000B01E0A4F1030BF2
:103A7000D9464FF0010B0BFA0AFBABF1010B0BEA35
:103A80000C0B0BFA09FB4FF0010E0EFA09FEAEF11A
:103A9000010E0EEA080E4BEA0E0200BF002904DBFD
:103AA00013071C0E084B5C5409E013074FEA136C14
:103AB000044B0C3301F00F04241F03F804C000BFB3
:103AC000BDE8F08F0CED00E000E400E000BF00F086
:103AD0000702064B19684FF6FF031940044B0B43CE
:103AE00043EA0221014B196000BF70470CED00E072
:103AF0000000FA0501F480421AB1026842F48042E3
:103B00000260704710B500BF034800684FF4804161
:103B10000148FFF7EFFF10BD00C00B4010B50023B8
:103B2000234C236000BF00BF00BFBFF34F8F00BF17
:103B300000BF00BF231F1868C0F34E3100BFC0F3A1
:103B4000C90200BF43F6E07303EA41134FF040445B
:103B500004EA82742343174C236000BF00BF131E86
:103B6000A2F10102EED10B1EA1F10101E7D100BFCC
:103B700000BF00BFBFF34F8F00BF00BF00BF0C4BA3
:103B8000703B1B6843F48033094C703C236000BFDA
:103B900000BF00BFBFF34F8F00BF00BF00BF00BF1B
:103BA00000BF00BFBFF36F8F00BF00BF00BF10BDDD
:103BB00084ED00E060EF00E000BF00BF00BFBFF396
:103BC0004F8F00BF00BF00BF00BF00BF00BFBFF3EB
:103BD0006F8F00BF00BF00BF00201449086000BF06
:103BE00000BF00BFBFF34F8F00BF00BF00BF00BFCB
:103BF00000BF00BFBFF36F8F00BF00BF00BF0C4806
:103C0000006840F400300A49086000BF00BF00BFF0
:103C1000BFF34F8F00BF00BF00BF00BF00BF00BF9A
:103C2000BFF36F8F00BF00BF00BF704750EF00E0D1
:103C300014ED00E00349086000BF0249096800294B
:103C4000FBD17047000000200448006820B1034801
:103C50000068401E01490860704700000000002015
:103C60002DE9F0416048406900F00070002841D023
:103C70005D48806900F4405048B1B0F5805F21D0C4
:103C8000B0F5005F20D0B0F5405F27D127E057485E
:103C9000006900F4803048B154480069C0F38130B5
:103CA00008B9534800E0002004460AE04F48006984
:103CB00000F0020008B1162000E014204C4900FB7F
:103CC00001F40EE04A4C0CE04848006BC0F3813030
:103CD00008B9474800E00020044600BF00BF0024A8
:103CE00000BF00BF40484069C0F3C260401CB4FB45
:103CF000F0F46EE03D48006800F4803048B13B4885
:103D00000068C0F3813008B9394800E00020064659
:103D100006E03648006800F07F0035494843460811
:103D20003248006B00F4803048B13048006BC0F37B
:103D3000813008B92E4800E0002005460AE02B48F3
:103D4000006B00F0010008B1162000E014202849A3
:103D500000FB01F52548D0F860C025482349096DCE
:103D6000A0FB01700146624600233846FDF78AFE3B
:103D700045191D48806900F4402048B1B0F5802FF6
:103D800008D0B0F5002F0FD0B0F5402F1ED115E0B0
:103D90002C461DE017480068C0F30540B5FBF0F065
:103DA00000EBC000440013E01248006800F03F0040
:103DB000B5FBF0F000EBC000440009E00A480069E0
:103DC00000F00700401CB6FBF0F401E0002400BF47
:103DD00000BF05484069C0F38220401CB4FBF0F0EE
:103DE00005490860BDE8F08100C00F4000800D402B
:103DF00000366E0100810D401800002010B52D48DE
:103E0000006840F470002B4908602B48008920F0BE
:103E10000100294908812948008920F0010027492B
:103E200008812548008800F0040028B12248008855
:103E300020F00400204908802048008800F0040099
:103E400028B11E48008820F004001C4908801C4846
:103E50001C4948604FF6FF7088600846006820F0F3
:103E6000800040F0200008604FF0E020006900F082
:103E7000010038B14FF0E020006920F001004FF060
:103E8000E02108610B487438006800F40030B0F598
:103E9000003F01D0FFF790FE06487438006800F438
:103EA0008030B0F5803F01D0FFF738FE00F00CF80D
:103EB00010BD000088ED00E000800B4000000D40C8
:103EC00020C528D900C00B407047000010B502483B
:103ED00000F04EF910BD000000800B4010B51648F0
:103EE00000F0B0F800F48040C0B1FFF7EFFF1348D6
:103EF0000078012809D1002010490870084602788E
:103F000009210F48FFF764F808E001200B49087009
:103F10000846027809210A48FFF75AF84FF4804111
:103F2000054800F037F800BF00BF00BFBFF34F8F58
:103F300000BF00BF00BF10BD00800B400B00002081
:103F400000801B4070B504460D464FF44470FEF7E8
:103F5000B5FA0E4800F026F800210C48C1708170B7
:103F600000200A4948700846C48005810120087174
:103F70000870074800F07EF8002204215C20FFF75B
:103F800051FD5C20FEF7A2FE70BD0000F80000208D
:103F900000800B4001F480421AB1C28842F4804292
:103FA000C280704710B5044604B104E030220B49CA
:103FB0000BA0FDF7EBFD01202070002060700021B8
:103FC000A170E1702071A072E07201202073607313
:103FD000FF20E0800420208110BD0000604400002C
:103FE000636F6E666967000070B50546002406E0E1
:103FF000094850F82400A84200D102E0641C032CB8
:10400000F6D300BF032C00D204E02922034904A008
:10401000FDF7BCFD204670BDBC42000060440000BE
:10402000696E7374616E6365203C20415252415940
:104030005F53495A4528735F77646F6742617365C0
:1040400073290000014600200A8802F00402104390
:104050008A8802F0100210438A8802F0020210439C
:104060008A8802F001021043CA8802F48042104399
:10407000704700002DE9F84F05460C4604B104E0F6
:104080004122324932A0FDF781FD002000902078C6
:10409000042101EA80006178802202EAC11108430C
:1040A000A17801F001010843E178022202EA41010E
:1040B0000843A17A402202EA81110843E1884FF4C3
:1040C0007F4202EA01210843217B202202EA4111BA
:1040D0000843617B102202EA011108430090284640
:1040E000FFF782FF1C4931F9106037464FF0030992
:1040F0004FEA172A07F01F0BBAF1070F00D805E0A7
:1041000040F2D332154916A0FDF740FD174800EBE9
:104110008A08D8F80000032101FA0BF1884309FA54
:104120000BF10843C8F8000000BF00BF207A2179D6
:104130004FF4004202EAC1310843E880E07A00F01F
:104140000100288100982880BDE8F88F60440000B5
:10415000636F6E6669670000C8420000704300002C
:10416000696E646578203C3D2037000068C00F40D0
:1041700045F25551418049004180704700BF70476A
:1041800000BF054A526902F40002002AF9D0C2B207
:10419000014BDA617047000000401840FDF7DCFD7C
:1041A0000320FFF793FCFEF75DFD4FF4E130FFF7CE
:1041B0005FFAFFF733FAFEF7B5FD02210320FFF7A0
:1041C000C1FE0648FFF708FB06E005A0FDF7D2FC9C
:1041D0004FF47A70FFF72EFDF7E7000080D1F0086A
:1041E000496E74206578616D706C652064726976C3
:1041F0006572210D0A0000004FF04070E1EE100AD8
:10420000704700000100000000010500640000008C
:10421000000000000100000000000000010000009C
:10422000000000000000000040787D0180F0FA02EC
:1042300000E1F505405973070000000000801B40B5
:1042400000C01B4000001C4000401C4000000C400F
:1042500000000042004000420080004200C00042D6
:10426000FFFF1A011E001A020C031E0100000000CD
:10427000004018400080184000C01840000019405D
:10428000004019400080194000C0194000001A4049
:1042900080FF1400150016001700180019001A00FE
:1042A0001B00FFFF18051C000C0018010203060389
:1042B0001A050E06004008400C0100000000000036
:1042C00000800B4000000D40FFFF10030A050000B6
:1042D000463A5C50726F6772616D2046696C657317
:1042E0007838365C4D444B5C41524D5C5041434BF9
:1042F0005C4E58505C4D494D585254313036345F05
:104300004446505C31302E302E305C6472697665E4
:1043100072735C66736C5F636C6F636B2E6300001B
:10432000463A5C50726F6772616D2046696C6573C6
:104330007838365C4D444B5C41524D5C5041434BA8
:104340005C4E58505C4D494D585254313036345FB4
:104350004446505C31302E302E305C647269766594
:1043600072735C66736C5F6770696F2E6300000028
:10437000463A5C50726F6772616D2046696C657376
:104380007838365C4D444B5C41524D5C5041434B58
:104390005C4E58505C4D494D585254313036345F64
:1043A0004446505C31302E302E305C647269766544
:1043B00072735C66736C5F636C6F636B2E68000076
:1043C000463A5C50726F6772616D2046696C657326
:1043D0007838365C4D444B5C41524D5C5041434B08
:1043E0005C4E58505C4D494D585254313036345F14
:1043F0004446505C31302E302E305C6472697665F4
:1044000072735C66736C5F6C70756172742E63009E
:10441000463A5C50726F6772616D2046696C6573D5
:104420007838365C4D444B5C41524D5C5041434BB7
:104430005C4E58505C4D494D585254313036345FC3
:104440004446505C31302E302E305C6472697665A3
:1044500072735C66736C5F7069742E630000000099
:10446000463A5C50726F6772616D2046696C657385
:104470007838365C4D444B5C41524D5C5041434B67
:104480005C4E58505C4D494D585254313036345F73
:104490004446505C31302E302E305C647269766553
:1044A00072735C66736C5F77646F672E63000000E5
:1044B000D0440000000000201C0000003C18000058
:1044C000EC4400001C0000201C01000058180000F3
:1044D00000000000000000000000000100000000DB
:0C44E000000000000000000000A4781F95
:0400000500001801DE
:00000001FF
